:020000040040BA
:10000000D0540020214540001D4540002D474000B0
:1000100031474000354740003947400000000000AC
:100020000000000000000000000000005535400006
:100030001D45400000000000753540003D47400070
:100040001D4540001D4540001D4540001D45400028
:10005000D53740001D4540001D4540000000000010
:10006000293E4000713E400000000000D1434000A6
:10007000E543400000000000C13E4000113F400049
:1000800000000000000000001D4540001D4540002C
:100090001D4540001D4540001D4540001D454000D8
:1000A0001D4540001D45400000000000000000000C
:1000B000000000001D4540001D4540001D4540005A
:1000C0001D4540001D4540001D45400010B5054C34
:1000D000237833B9044B13B10448AFF300800123F4
:1000E000237010BD000C0020000000007859400073
:1000F00008B5064B1BB106480649AFF30080064819
:10010000036813B1054B03B1984708BD0000000018
:1001100078594000040C002078594000000000008D
:10012000016070478163704701238360704700BF9F
:1001300001234363704700BF006900F0010070476E
:10014000C06B70470068C0F30320704708B5120207
:1001500002F4706241F080611143024B9847002025
:1001600008BD00BF6900002008B50268044B090201
:1001700022F4706201F470611143984708BD00BF1A
:100180006900002008B5A1F10E03012B02D84FF041
:10019000FF3008BD120222F07F4222F0FF0242F03F
:1001A000B442C9B21143014B984708BD6D0000200D
:1001B00008B50A46024B014602489847002008BD90
:1001C0004D014000000A0E402DE9F04F85B0044675
:1001D000A0F58008324D334802938B469146A847DC
:1001E00006210390304B2F48C8F34F28C4F3080A68
:1001F0009847B9F1000F4AD02C4F54463D4608F5B8
:10020000005AC4F500734FEA4A2A4B4534BF1E46D4
:100210004E46019351462246DFF894C02348E047FA
:10022000324638195946DFF888C0E047019B30193B
:100230009A1B06EB0A01384421441D4B92B29847A1
:100240001C4B1F1D07F5FE7153F8040F5A1B8B4200
:1002500042F80A00F8D1029B12487BB103214246C2
:10026000DFF854C0E04778B908F1010CB9EB060992
:100270001FFA8CF8B3440AD00446C0E70121424675
:100280000D4B98470028EFD005B0BDE8F08F0399DB
:100290000448DFF814C0E047002005B0BDE8F08F47
:1002A00045014000000A0E40690140001C0C00207E
:1002B000214D4000180C00208501400021F4FF5121
:1002C00021F01F0170B520F4FF5001F5FF5420F01C
:1002D0001F001F3402B1106003B11C600C4DA0F56B
:1002E0008004640A0D44A4B2C5F34F25AC420CD27D
:1002F000084E01E0AC4208D2224607480921B04727
:100300001034A4B20028F5D070BD002070BD00BF2D
:10031000FF1FC0FF85014000000A0E402DE9F04399
:10032000ADF23C4D044600214FF40A7284A8604DA2
:10033000A84730232370214684A801225D4B9847AB
:10034000044620B101200DF23C4DBDE8F08302903F
:100350006B460C2201A984A8574F01940394009482
:10036000B847019B554A9342064605D1BDF808207F
:10037000BDF80A309A4207D084A8514B9847012013
:100380000DF23C4DBDE8F08306214E4B20469847C8
:100390008799DFF868C14C4801F58401234601F5CF
:1003A00080412246E04704A821464FF40072A84746
:1003B000879B0C2B77D0002E77D1DFF84481DFF8B4
:1003C0003491354608E0009B40481D44C847879E4D
:1003D0000C3EAE4213D994B904A94FF400726B4697
:1003E00084A8B847044605F5840000F5804004A9B8
:1003F000009A0023C0470028E5D0879E0C3E344871
:10040000344B354F354D9847354B2F4A30481A609D
:100410000024B6089C60DC6019461C6146F000763A
:100420005E60B8472A482F4B0921984728482E4B31
:10043000984701E0013C03D02548A8470128F9D09E
:100440002A4B23489847BDF8083080B28342ADF864
:100450000A0006D084A81A4B9847003018BF012024
:1004600071E7879B0C2BF5D0DFF89480204D214E4F
:10047000002405E02048B047879B0C3BA342E9D904
:1004800004F5840101F580414FF4007204A8A847E7
:1004900004F581004FF4007204A900231444C047FE
:1004A0000028E7D0D6E72646A9E7A3F10C06A6E781
:1004B000554E4000452F4000E931400055AA55AA4D
:1004C00051344000B10140000040420037140D009B
:1004D000004004403101400021014000390140004A
:1004E0000012002025014000290140004101400088
:1004F000214D400085000020D34E0100BD02400088
:10050000C90140002DE9F04F634B644C83B098471C
:10051000634B20209847634B9847012318460DF101
:1005200005018DF805308DF80630A0470DF1060164
:100530000220A0479DF80530002B3ED19DF80630E3
:10054000002B3AD1584E0A2509E09DF8067057480D
:10055000D7F1010738BF0027B047013D11D00DF199
:1005600005010120A04702200DF10601A0479DF8DA
:100570000530002BE9D04D48B047013D4FF0000752
:10058000EDD1D7B102A9102001F8015DA0479DF877
:100590000730012B1ED0464D01210E20A847012116
:1005A0000C20A8470D200121A847424D0A244248AB
:1005B000B0470E20A847013CF9D14FF481031A68D7
:1005C00082F308883D493E4A8B601368184703B0A0
:1005D000BDE8F08F3B4BDFF80C91DFF80C813A4F10
:1005E000AA4698474FF4FA7408E0013C46D03748D1
:1005F000DFF8F4B0B04798F8005085B10020C84744
:10060000012888F80000F0D10020B8470228ECD07B
:10061000013CF9D14FF0010A4FF0FF34E7E72C4BD2
:100620002C4829464FF40C729847284629492A4BF2
:1006300098470B288BF80000ADD0BAF1000FAAD173
:1006400051461B4D0D20A84751460E20A847234870
:10065000234B984700289FD101210E20A847012154
:100660000C20A8470D200121A847124D062412484E
:10067000B0470C20A847013CF9D19EE7144B154820
:100680000B4D21464FF40C72984720461149124BEE
:10069000984788F800007FE7693B4000D13B400065
:1006A000D5444000C53F40008500002037140D00B0
:1006B000A53B4000013C40006E281A0000ED00E020
:1006C000048040004908400069084000D34E010002
:1006D000554E400014120020052F4000A452400047
:1006E0001D034000F11140001C0E002010B5074A08
:1006F000074B1268187892F822301168054C527C2A
:10070000003318BF0123A04710BD00BF240E0020F6
:100710002A0E002061154000F8B5C500344C291898
:1007200004EB810101268A68530903F5001303F2E3
:1007300007735B0202F01F02DB6B06FA02F2134042
:1007400001F1080110D18979B14206D0284404EBA7
:1007500080040423A3730220F8BD264A1278002ADD
:10076000F4D0254A1360F1E78B79042B2AD0012BB2
:1007700003D0032B18D11846F8BD1E4B1B782BB1A4
:100780001D4B1A68D20330D500221A60291889003F
:1007900063181A4F02269E736750012700215F7469
:1007A00083F822109B7BE4E7054404EB850414499D
:1007B000144A154B10700C609847A07B831E58425A
:1007C0005841F8BD0C4B8E711A6832B909490F4A6D
:1007D0000E705A601E600220F8BD064A0C480D4B90
:1007E0000021117098470220F8BD0220F8BD00BF1B
:1007F00090000020200E002010E000E0801A06008B
:10080000240E00202A0E0020ED064000C0E1E40086
:1008100025CA82008500002038B5084D084A2B689B
:10082000998941F6093009049047044618B12868AF
:10083000044B12309847204638BD00BF240E0020DC
:10084000051640003916400010B50448044A054B0F
:100850000424FF2184731170984710BD900000207C
:100860002A0E0020291540002DE9F04F054695B0CD
:10087000002800F0EA8004249E4B1878002800F03D
:10088000DE80204615B0BDE8F08F45F208504FF4E9
:10089000D571B047002840F0F7804FF000093B6861
:1008A000DB7BDA0700F1FC8045F203100021B04742
:1008B000002800F0E080DFF874923D68DFF868A25D
:1008C000C8473B68000CA881DA7BD5073AD58A4B2C
:1008D0009847002800F0CF80DAF80030874D5A7D25
:1008E0008748997C02F0070EC2F3C30255F82E50D8
:1008F00050F822004FF47A7202FB05F200FB02F27C
:1009000089091A6040F07981587E93F818C0D97E21
:1009100093F81AE01D7FDA7D800040EA8C204900C0
:1009200040EA9E1041EAD511C0F30B0001F0070127
:100930000130023100FA01F102F00F0201FA02F275
:10094000920A5A6099896F4D090443F20710B04723
:10095000002800F090803B68DFF8CCA1DA7BD0075C
:1009600030D5998941F237100904A847002800F0D2
:100970008280012500952B466348DFF8B8C100212D
:100980000822E047002876D0294604A85F4B984704
:10099000002870D05E4B984700286CD09DF810302E
:1009A00003F00F03012B00F02382C0F01C82022B06
:1009B00040F019829DF81230DB093B6814BF3022E9
:1009C00020221A744B4D534B2878984703281AD984
:1009D0003B68DFF854A1DA7BD10712D59989DFF89B
:1009E00024B1090441F23710B047002844D041F245
:1009F00006100221D84700283ED0DAF80030042241
:100A00005A74454B9847454B984758B13B68DFF8B7
:100A100018B1DA7BD20703D51B7C102B00F2FA80C9
:100A20003D4B98473A68DFF80081D37BD90700F146
:100A3000D98028780023937300287FF422AF384BA5
:100A40009847204615B0BDE8F08F364B98470128EF
:100A500004467FF411AF344FDFF8DC803B68294E49
:100A6000D8731D749D81C04729464FF48040B0471C
:100A700000287FF40AAF1F4D3B68287803249C733D
:100A800000287FF4FEAEDAE7284B9847451C3FF478
:100A900004AFC0F30B00B0F5D57FECD1A146FEE664
:100AA00040F63505DFF888A0DFF880B00EE0B9F138
:100AB000000F14BF51464FF4FC1144F22950B047C7
:100AC00050B1D847002878DB013D05D041F23710FE
:100AD0000021B0470028EAD13B680222DA734FF4C4
:100AE00080400021B0470028C5D041F26905DFF8F9
:100AF0003C8025E02A0E002019084000F4524000F6
:100B0000B45240000516400033110800B1174000F0
:100B10001918400051154000ED0640005D154000D9
:100B2000E115400019074000240E00203116400056
:100B300000801F405D164000E5154000013D9AD041
:100B4000AF49DFF8FC9244F20150B047002892D040
:100B5000C0470028F2DA00F0C040B0F1804F04D165
:100B60003B68DA7B42F00802DA7345F60230002176
:100B7000DFF8D082B04700283FF47DAF3B68A14D3D
:100B800001229A8141F203104FF48031C0470028BE
:100B90003FF471AF9C4B984700283FF46CAF2B6833
:100BA0009A7CC2F38302013A032A00F27C81DFE8D7
:100BB00012F077017D012401680041000FD53A68E9
:100BC000D37B43F00803D373DB077FF56DAE45F6A7
:100BD00002300021B04700287FF466AE4BE73B6847
:100BE000DB7BF1E741F210104FF40071B0470028B1
:100BF0003FF442AFD8F800201BE7597E987EDA7E9A
:100C0000090441EA00210A43C2F3150201325202EB
:100C10005A6097E64FF0010ACDF800A053467B4892
:100C20007B49DFF804C24022E04700283FF424AFAC
:100C300004A85146774B984700283FF41DAF764BE8
:100C4000984700283FF418AFC84700063FF514AF97
:100C50009DF8203003F00F030F2B3FF4E1AE9DF819
:100C60002D309DF82C2053EA02227FF405AFC047B7
:100C7000DBF800301A6883F822A002FA0AF21A6040
:100C8000CEE640221A745A7D93F819E0634964480D
:100C900093F818C09D7E02F00708C2F3C30251F812
:100CA000281050F822004FEA8E0242EA8C224FF4BC
:100CB0007A7E0EFB01F142EA951200FB01F0C2F3CD
:100CC0000B0240F6FF718A42186011D0D97E1D7F59
:100CD000D87D490041EAD51101F007010132023106
:100CE00002FA01F100F00F0201FA02F2920A5A60D0
:100CF000998943F207100904B04700283FF4BBAEBE
:100D00003B681B7C3F2B40F2B1800021009145489D
:100D1000454D4FF400720123A84700283FF4ABAEC5
:100D2000DFF82481322503A8C047013DADB2002879
:100D30003FF4A1AE002DF6D13B68039A5D7E187E8C
:100D4000997EAB0043EA802343EA9111C1F30B0182
:100D500040F6FF7302F0020299425FFA82FA4FF006
:100D600032050DF1100B73D05846C0470135ADB2B6
:100D700000283FF480AE7F2DF6D92C4DDFF8CC80D3
:100D80002878C047032818D92878C0470428804607
:100D900070D02749274B082818BF194643F2061080
:100DA000B04700283FF468AEC84702063FF564AE7E
:100DB0003B68214A83F811809047204B984710B137
:100DC000BAF1000F58D14FF00A0841F210104FF459
:100DD0000071B04708F1FF3800286AD118F0FF0809
:100DE0003FF44AAEF1E7DAF8003010221A74E9E570
:100DF000DAF800301A221A74E4E530221A7442E755
:100E000000801F40240E0020190840000611080031
:100E100001FFFF80B117400019184000F452400054
:100E200010534000081108005D1640002A0E0020F3
:100E30000002B7010000B701ED0640005D1540005B
:100E400031164000051640000D17400051154000B6
:100E50005846C0470135ADB200283FF40CAE362DE0
:100E6000F6D1049A3B6852085A607DE7124B134D45
:100E70009847A8E7124991E743F206101149B04795
:100E800000283FF4F9ADC84703063FF5F5AD3B68D0
:100E90000D4A1A60012283F82220074B984792E7F7
:100EA00014221A74EFE612221A74ECE622221A7443
:100EB000E9E63A68BDE500BFED0640002A0E0020D5
:100EC0000001B7010001B9030075190308B508B1A5
:100ED000002008BD084B98470028F9D1074B1B7824
:100EE0001BB1074B1B68D87B08BD064B9847044BCA
:100EF0001B68D87B08BD00BF190740002A0E0020E0
:100F0000240E0020E115400008B508B1002008BDFE
:100F1000084B98470028F9D1074B1B781BB1074BAA
:100F20001B68586808BD064B9847044B1B685868F7
:100F300008BD00BF190740002A0E0020240E002023
:100F4000E1154000002070472DE9F04F8B4683B03B
:100F5000924628B14FF00409484603B0BDE8F08F2F
:100F6000264B984781460028F6D1254C254D264E24
:100F7000264F04E0B847C20514D4013C09D02B68C1
:100F8000DFF88880998941F20D100904B0470028E4
:100F9000F0D11F4B1B783BB34FF00509484603B017
:100FA000BDE8F08F2B681B48DB7B1B4ABAF1010FB1
:100FB00098BF10461B0701D44FEA4B2B0123009327
:100FC00059464FF400725346144CA0470028E0D015
:100FD000C047134B0340002BDBD1124A124BA2F83F
:100FE00000A0A3F800A0B7E70020104B98474FF0EF
:100FF0000509484603B0BDE8F08F00BF190740005F
:10100000410D0300240E002005164000311640005B
:101010002A0E002012111000111108005D16400068
:10102000000058E4280E00201E0E0020E1154000AC
:1010300010B5074B0C469847034618B9054A13806C
:10104000052010BD034B1A88141B1C80002010BD06
:10105000B1174000280E002010B5124B04469847E7
:1010600008B9052010BD104B9CB91B887BB90F4BEC
:101070001B88012B05D043F20C1000210C4CA0471B
:1010800050B10C4B1B7813B900200B4B9847002034
:1010900010BD00221A80EAE7014643F20C10A04777
:1010A000EFE700BF19184000280E00201E0E002098
:1010B000051640002A0E0020E115400070B51546C7
:1010C00084B018B10424204604B070BD0391184BBD
:1010D0009847039904460028F5D1164B164A1B6819
:1010E0001648DB7B164E012D88BF10461B074FF0BC
:1010F000010358BF490200934FF400722B46B047DA
:1011000030B9104B1B7873B10524204604B070BD74
:101110000D4B98470D4B0340002BF2D10C4A0D4B61
:1011200015801D80CFE700200B4B9847ECE700BFF0
:1011300019074000240E0020199110001891080092
:101140005D1640002A0E002031164000000058E4D1
:10115000280E00201E0E0020E115400010B5074BA0
:101160000C469847034618B9054A1380052010BD60
:10117000034B1A88141B1C80002010BDBD184000B2
:10118000280E002010B5144B0446984708B90520D6
:1011900010BD124B94B91B88E3B9114B1B88012B6E
:1011A00012D043F20C1000210E4B984760B90E4B41
:1011B0001B78002BEBD10D4B9847E8E700221A80F3
:1011C000074B1B88012BECD1074B1B7813B9002070
:1011D000064B9847002010BD29194000280E00201A
:1011E0001E0E0020051640002A0E0020E1154000CA
:1011F00010B50F4B0446984701280DD007D302289D
:1012000003D10C4B00221A5510BD012010BD094B13
:101210001B5D1BB1022010BD032010BD2046064BF4
:10122000984710F0030F0CBF0220002010BD00BF34
:10123000690840002C0E0020CD0E400008B50020AB
:10124000014B984708BD00BFF111400008B50120CF
:10125000014B984708BD00BFF111400038B5054B60
:101260000D4604469847400001382860024B20464E
:10127000984738BD090F4000F111400008B50146FC
:10128000014B0020984708BD5D12400008B501469B
:10129000014B0120984708BD5D124000014B1870BA
:1012A000012070472C0E0020014B58700120704720
:1012B0002C0E002008B50020014B984708BD00BF48
:1012C000450F400008B50120014B984708BD00BFFD
:1012D000450F4000012070470120704710B50B4BAF
:1012E00014460122984720B102280CBF0220012099
:1012F00010BD20460121064B984708B1012010BDC2
:10130000044B9847003018BF012010BD490F400022
:10131000311040005910400008B50A46024B014602
:101320000020984708BD00BFDD12400008B50A46FE
:10133000024B01460120984708BD00BFDD12400066
:1013400010B50B4B14460122984720B102280CBF60
:101350000220012010BD20460121064B984708B10C
:10136000012010BD044B9847003018BF012010BD6C
:10137000BD1040005D1140008511400008B50A46CF
:10138000024B01460020984708BD00BF41134000B2
:1013900008B50A46024B01460120984708BD00BF28
:1013A00041134000012808B501D9012008BD4001C2
:1013B000014B1B58984708BD50534000012808B501
:1013C00001D9012008BD034B03EB401308465B68BD
:1013D000984708BD5053400001288CBF00200120D1
:1013E000704700BF012808B501D9012008BD034B93
:1013F00003EB4010C368984708BD00BF505340003E
:10140000012808B501D9012008BD044B03EB4013A6
:1014100008465B691146984708BD00BF505340001D
:10142000012808B501D9012008BD044B03EB401386
:1014300008469B691146984708BD00BF50534000BD
:101440002DE9F00101F03F03CF0543EA000003D589
:101450000E0530D540F484504FF080434C0448BF13
:1014600040F400601A611D4601F48054586104E0A4
:1014700013F41F0F2CD1DA0724D44FF080422B6CC9
:10148000002CF5D113F41B0FF5D0D2F804C09768E7
:10149000D668D569516D4FF080080523C2F80080E9
:1014A000C2F804C09760D660D561516513602046CC
:1014B000BDE8F00170478D044CBF40F4865040F405
:1014C0008250C9E78B0415D40120BDE8F0017047B4
:1014D000802057689668D568D469516D10600523DF
:1014E000002057609660D560D46151651360BDE8F7
:1014F000F00170474FF0804319461B6C4FF0FF30EE
:1015000003F03003202B4FF08042DDD001380B6C0C
:10151000F6D14FF0800C57689668D568D469516D44
:10152000C2F800C00523DCE710B5084B122098472D
:101530004FF08043722211244FF4E06005219A603D
:10154000DA615C655860196010BD00BFD544400089
:1015500000280CBF04200020704700BF0120704706
:101560003BB34FF080434900586D40F4807058659C
:101570001A4B994227D801331846B3FBF1F301FB0C
:1015800003F1401A08BB0BBB19464FF08043042AF5
:10159000586820F0FF005860586841EA000159601F
:1015A00017D0082A4FF080430CBFC0220022DA6017
:1015B00070474FF080434900586D20F480705865A3
:1015C000064B9942D7D90021DFE70133013BD9B25D
:1015D000DBE74FF080438022DA607047FF0D27077A
:1015E000704700BF4FF0804300205A684FF41061ED
:1015F00022F460525A6018611A465961136CDB0775
:10160000FCD5704770B54FF0804300245A68074DF1
:1016100022F460525A605E6826F400460A465E6014
:1016200001469C612046A84770BD00BF41144000A0
:101630004FF08043186A704730B400F110054FF046
:101640008044236AC370190E1A0C1B0A0170427081
:1016500083700430A842F4D130BC7047F8B50E4610
:101660009DF818504FF08041044648684DB340F44F
:10167000004048604FF080409707416841F4C051F6
:101680004160416814BF41F4005121F4005114F449
:10169000004F41600CBF4FF4A0204FF48030E503B1
:1016A0004FF0804121D443EA02458D61A1030CD45F
:1016B000670320D425030AD4E10248BF40F4002088
:1016C00005E020F400404860D4E740F420100B49C6
:1016D000DFF834E00A4F0A800A4D3B80214632464B
:1016E0000024CEF80040A847F8BDC2F3080540F436
:1016F00000108D61EBE740F48010E8E7300E002029
:10170000320E002041144000340E0020F0B44FF09F
:10171000804401E0920717D4226C214B13404FF014
:101720008041002BF6D04F688E68CD68CC694A6D39
:101730008020052308604F608E60CD60CC614A65D3
:101740000B600020F0BC7047164A174C174D136809
:1017500026882D880C6B0460043306FB05F0834259
:10176000136002D219E0130117D40A6C0C4B13401A
:101770004FF08044002BF6D06768A668E568E16901
:10178000626D8020052320606760A660E560E161EE
:10179000626523600020F0BC70470120F0BC7047F8
:1017A000000060C0340E0020300E0020320E0020F9
:1017B00030B4174B1B88840703FB01F101D19A0752
:1017C0001ED04FF080435A6842F400525A604FF0E6
:1017D00080430024C3F800015B680E4A9B044FF06D
:1017E000804354BF8D080D460120C3F80451C3F84F
:1017F0001441C3F8200113681944116030BC7047CC
:101800004FF080435A6822F400525A60DFE700BF6D
:10181000300E0020340E0020F0B44FF0804001E084
:1018200052041BD4026C214B13404FF08041002B1B
:10183000F6D040F20223C1F820314F688E68CD689F
:10184000CC694A6D8020052308604F608E60CD60B2
:10185000CC614A650B600020F0BC7047144A154803
:10186000154B128800881B6800FB02F29A4202D9CD
:1018700019E0130117D40A6C0C4B13404FF080444D
:10188000002BF6D06768A668E568E169626D802084
:10189000052320606760A660E560E1616265236002
:1018A0000020F0BC70470120F0BC7047000060C011
:1018B000320E0020300E0020340E002030B4184BC1
:1018C0001B88840703FB01F101D19A0720D04FF058
:1018D00080435A6842F400525A604FF0804300241B
:1018E000C3F808015B680F4A9B044FF0804354BF64
:1018F0008D080D464FF48070C3F80C51C3F81C419D
:10190000C3F82001136819441160012030BC7047EE
:101910004FF080435A6822F400525A60DDE700BF5E
:10192000300E0020340E0020F0B44FF0804001E073
:1019300012041DD4026C224B13404FF08041002B47
:10194000F6D0D1F804C08F68CE68CD694C6D802088
:10195000052240F202230860C1F804C08F60CE6007
:10196000CD614C650A60C1F820310020F0BC7047A1
:10197000144A1548154B128800881B6800FB02F2B8
:101980009A4202D919E0930617D40A6C0C4B134003
:101990004FF08044002BF6D06768A668E568E169DF
:1019A000626D8020052320606760A660E560E161CC
:1019B000626523600020F0BC70470120F0BC7047D6
:1019C000000060C0320E0020300E0020340E0020D7
:1019D000436819B923F001034360704743F00103E2
:1019E0004360704730B484688568AC4203D0846833
:1019F0008568A542FBD161B104F47C10050D05EBAF
:101A00008505C0F3034000EB4500650248BF0C307C
:101A100008604AB104F4FE41080B00EB8000C1F3FA
:101A2000032101EB4001116043B1C4F3021202EB48
:101A3000820204F00F0404EB42021A6030BC7047CB
:101A4000F0B4C468C568049EAC4203D0C468C568DD
:101A5000A542FBD1A1B104F47F452F0BC4F30210C2
:101A600007EB870CC5F3032504F00F0700EB80009C
:101A700007EB400005EB4C05642707FB00500860AE
:101A80004AB104F4F810010D8D00C0F3034029445D
:101A900000EB410111604BB104F07C52110F01EBDE
:101AA0008101C2F3036202EB41021A6016B1C4F372
:101AB00042543460F0BC7047C16070474069704761
:101AC00043699B0746BFC16100200120704700BFEA
:101AD00081607047C160704743699B0743BFC1F392
:101AE0000801C16100200120704700BF4369DB0786
:101AF000FCD58369C3F308030B600020704700BF67
:101B000038B5002104460B4B0B489847022C07D8E8
:101B100020460A4DA847032801D12046A84708B10E
:101B2000012038BD2046064B984700280CBF0020F6
:101B3000042038BDD119400060140E40A5134000A8
:101B4000E513400008B5044B984718B102280CBFB4
:101B50000320012008BD00BFA51340002DE9F04F70
:101B6000184C83B00E46154698468146A047044659
:101B700018B9012003B0BDE8F08F134B484601A906
:101B80009847019B18FB04F203FB04432A449A4242
:101B900003D9042003B0BDE8F08FB8F1000F0FD0D7
:101BA000DFF828B04FEA442A002729463246484643
:101BB000D8470137254456440028DAD14745F4D3A5
:101BC0000020D7E7D9134000BD13400001144000A6
:101BD0002DE9F04F184C83B00E46154698468146C5
:101BE000A047044618B9012003B0BDE8F08F134B9D
:101BF000484601A99847019B18FB04F203FB0443E4
:101C00002A449A4203D9042003B0BDE8F08FB8F10A
:101C1000000F0FD0DFF828B04FEA442A00272946EA
:101C200032464846D8470137254456440028DAD181
:101C30004745F4D30020D7E7D9134000BD13400037
:101C40002114400010B5144682B0032929D8DFE8DA
:101C500001F01C13070201231360002002B010BD25
:101C6000114B9847431EDBB2012B16D9042814D020
:101C7000082812D00120F1E701A90C4B9847019BDD
:101C800000200133236002B010BD094B98470028A3
:101C900014BF0320002002B010BD0020207002B04D
:101CA00010BD0420DAE700BFD9134000BD13400087
:101CB000A513400030B5124C124D8BB0204603A93D
:101CC00004AA05ABA84709AB2046009306A907AABA
:101CD00008AB0D4CA047089D079C05980399049AF2
:101CE000069B2D0445EA4454204340EAC12141EAC1
:101CF0004210A3F2BC7340EA43600BB030BD00BF9A
:101D000060140E40E5194000411A400070B4194AB1
:101D10000026334652F8084C74B10568AC4210D026
:101D20000133032B02F10C02F4D13EB9022914BF96
:101D30001220002070BC70470136F1E7002070BC13
:101D4000704752F8045C8468A542E9D11588C488BC
:101D5000A542E5D109B11020ECE7074A03EB4303A4
:101D600002EB830370BC5B89B3F5807F14BF002056
:101D700010207047440E00203C0E00202DE9F8434F
:101D8000C56A8D4204460E4602D0037973B916B96E
:101D90000020BDE8F8836078174D04F13001324629
:101DA0000123A84720BBE662BDE8F88300F13008B4
:101DB00041464078DFF844902A460123C847B8B925
:101DC000E369226A20711A449542E0D2E778012F34
:101DD00001D8DCE7E3691D44013F2A4660784146AB
:101DE0000123FFB2C847012FF4D1002ED0D0D2E793
:101DF0000120BDE8F88300BF5D1B4000D11B4000FF
:101E00002DE9F84F0021314B05469847034650B95C
:101E10002B78032B0AD000212D4B68780A4698476F
:101E2000031C18BF01231846BDE8F88F6B79002BFF
:101E3000F1D005F13001E8620B4605F50C7203F8AC
:101E4000010B93424FF00004F9D12A69EB6885F841
:101E50001822C2F3072B4FEA124A4FEA134C4FEAFB
:101E6000136E52204FEA1269C3F307286122AA2693
:101E700085F819B285F81AA24FF0410B4FF0720A9B
:101E8000552785F81C3285F82F6285F8300085F8D3
:101E9000310085F8322085F8172285F81B9285F8E5
:101EA0001D8285F81EC285F81FE285F82E7285F81E
:101EB00033B085F816B285F814A285F815A26878B3
:101EC0006A69044E0123B0476C71A4E77D1D400090
:101ED000451C4000D11B400008B508B103780BB980
:101EE000092008BDC3888B42FAD1044B407898473B
:101EF00010F0010F0CBF0020032008BD451B40005F
:101F000070B504460A4640781D4D04F130010123A6
:101F1000A84708B1032070BD94F82F1294F82E2220
:101F2000184B42EA012212B29A4201D0022070BD3F
:101F300094F8682094F8696094F8665094F86710F3
:101F4000114B120442EA06622A4342EA012222F0BD
:101F50007F429A42EBD094F8842094F8855094F80C
:101F6000821094F88300120442EA05620A4342EAAE
:101F7000002020F07F40C01A18BF012070BD00BFB4
:101F80005D1B400055AAFFFF464154002DE9F0417A
:101F900003681C78303C092C154602D85A783A2A36
:101FA00015D0BD4B1C680C6074B12378B3B1BB4B2A
:101FB00060789847C30711D405B310F0040F0CBF25
:101FC00000200A20BDE8F0810C20BDE8F08102333A
:101FD0000360002CE5D00B20BDE8F08100202070CC
:101FE0006070AF4B9847C70702D50320BDE8F0816A
:101FF0003DB1460705D50A20BDE8F0812846BDE879
:10200000F08120460021A74DA847012807D00026CF
:10201000032800F0BF80C0B10D20BDE8F08194F826
:10202000F231002BF8D094F8F82194F8F91194F8D3
:10203000F63194F8F761120442EA0162134343EA6D
:10204000062631462046A847E2E794F83C2094F85B
:102050003B3043EA0223B3F5007FDDD194F847100B
:1020600094F8463053EA01210DD194F8562094F8A3
:10207000570094F8543094F85510120442EA006264
:10208000134343EA012194F84000E161431E012B10
:10209000E070C1D894F83D30A370002BBCD05A1E1C
:1020A0001A42B9D194F8425094F8412042EA0522EC
:1020B00015072281B0D194F8447094F8435055EA42
:1020C00007250FD194F852C094F8538094F85050DB
:1020D00094F851704FEA0C4C4CEA086C4CEA050538
:1020E00045EA072594F83FC094F83E7057EA0C275C
:1020F00092D000FB01FC07EB1210604485428BD3A9
:102100002D1AB5FBF3F3002B86D040F6F575AB42E4
:1021100040F2C0804FF6F575AB4200F2A080022578
:10212000023330443744A361A0622762002A3FF49F
:1021300073AF6744022D676200F08F8003EB4302A8
:1021400003F0010303EB5203012503F2FF13B1EB8C
:10215000532FFFF461AF4FF0FF320023032D2261B4
:10216000E3601AD0504E514930882570013000226A
:1021700080B23080E0801346E26222711546084644
:10218000CA58944208BF1D500C33242BF8D10020AC
:10219000BDE8F0810120BDE8F08194F8611094F869
:1021A0006020637142EA0122324462616078404EED
:1021B00004F130010123B0470028D3D194F82F1245
:1021C00094F82E223B4B42EA012212B29A42C9D124
:1021D00094F8320094F8336094F8302094F8311079
:1021E000354B000440EA0660024342EA01229A426B
:1021F000B8D194F8160294F8176294F8142294F85F
:102200001512000403F1FF5340EA066003F5005382
:102210000243203342EA01229A42A3D194F81E726B
:1022200094F81A6294F81F8294F81BC294F81C2246
:1022300094F8183294F81D0294F819123F043604E9
:1022400047EA086746EA0C663A43334342EA00220B
:1022500043EA0123E260236184E75B0075E7023310
:1022600030443744A361A0622762002A7FF4D4AED1
:1022700094F85E5094F85F7094F85C2094F85D00D8
:102280002D0445EA07652A4342EA00229B00626268
:1022900003255AE7012543E7600E0020451B400057
:1022A000011B4000011F4000380E00203C0E0020A2
:1022B0005D1B400055AAFFFF525261412DE9F041DC
:1022C0000378022B04460D4648D0032B29D0012B5E
:1022D00003D04FF0FF30BDE8F081016A294F05EBD4
:1022E000550601EB5621B8470028F2D1C6F3080382
:1022F000216A2344013601EB5621204693F83080B1
:10230000B8470028E5D1C6F30806344494F83030C5
:1023100048EA0320EB074CBF0009C0F30B00BDE8FF
:10232000F081016A174B01EBD51198470028D0D1F5
:10233000AD0005F4FE7505F1300323442C44D87834
:1023400099785A7894F83030000640EA014040EA23
:102350000220184320F07040BDE8F081016A094B6B
:1023600001EB152198470028B3D16D0005F4FF75E6
:1023700063191C4693F8303094F8310043EA00208A
:10238000BDE8F0817D1D4000F8B583680446012B4F
:102390000D46E18003D000688269934201D3022098
:1023A000F8BDB3B90378032B10D00023E360038991
:1023B000AB42F4D9436A03EB1513236105F00F0513
:1023C00000EB4510303060610020F8BD436A002BFF
:1023D000EBD086783601B54219D3012BDFD9AD1B7E
:1023E0009A42ADB2DBD9114F08E00128D7D9206855
:1023F00082699A42D3D9AE4209D80D461946B847E8
:10240000A91B421C034689B2EFD10120F8BDE3604D
:102410008269023B023A93423BBF8178826A002381
:1024200001FB032303EB15132361C7E7BD22400023
:102430002DE9F0410378022B04460D4616465BD089
:10244000032B39D0012B04D0022001232371BDE8D6
:10245000F081016ADFF8D48005EB550701EB5721C5
:10246000C0470028F1D1C7F3080315F00105234444
:10247000F2B206D093F8301001F00F0141EA0212D7
:10248000D2B283F83020216A0137012301EB5721B2
:1024900023712046C0470028D7D1C7F30807002D75
:1024A0003FD12744C6F3032697F8303023F00F03BB
:1024B0001E4387F83060C8E7016A1C4B01EBD51159
:1024C00098470028C1D1AD0005F4FE7505F1300331
:1024D00023442544DA78120602F070421643C6F30C
:1024E0000727310C320E85F830605F709970DA7012
:1024F00001232371BDE8F081016A0C4B01EB15212A
:1025000098470028A1D16D0005F4FF756219C6F344
:10251000072382F83130012382F830602371BDE84F
:10252000F081C6F307162744C3E700BF7D1D4000B6
:102530002DE9F0410546884601BBC66883695EB354
:102540009E4228BF01262E4F34460FE0012E25D98A
:10255000022B10D9022428462146B84738B3411C23
:1025600021D0012807D0A64218D0AB6901349C4283
:10257000ECD2012CEFD80120BDE8F0810129FAD975
:1025800083699942F7D21E4B98470128F3D9AB696A
:102590008342F1D84646D6E70126D4E70020BDE8BD
:1025A000F0810128E7D14FF0FF30BDE8F081AB6941
:1025B000A342E0D9284621466FF07042114EB04741
:1025C0000028EED1B8F1000F0BD0B8F1010FD2D92D
:1025D000AB699845CFD2414628462246B0470028ED
:1025E000DFD12B69EC605A1C06D0013B01222B6124
:1025F0006A712046BDE8F0812046BDE8F08100BF49
:10260000BD224000312440002DE9F84FC588013536
:10261000ADB204460E4615B90420BDE8F88F036933
:10262000002BF9D015F00F0708D0006800EB471316
:1026300030336361E5800020BDE8F88FC168013365
:102640000361006861B18278013A12EA1512EDD196
:10265000012902D98269914206D30220BDE8F88F90
:102660000289AA42D8D9E1E7344B9847012880462D
:10267000F3D9B0F1FF3F1CD02068826942450ED9E2
:10268000A8F10206C4F80C808269023A96423BBF68
:102690008178826A002601FB06262661C6E7002EA5
:1026A000BAD0E168264B9847804628B90720BDE894
:1026B000F88F0120BDE8F88F0128CED0B0F1FF3FA0
:1026C000F7D02068DFF87C900021C8470028F0D1BF
:1026D0002268014602F1300302F50C7203F8011B77
:1026E0009342FBD123689A69A8F10206023A964206
:1026F0003BBF9A6A9978002201FB0622DA624FF00A
:10270000000A4FF0010B0BE083F804B02068C847C3
:102710000AF1010A0028CCD12368DA6A0132DA62B0
:10272000236898785FFA8AF290424FF00001EBD864
:10273000D96A8A1ADA622068A4E700BFBD22400085
:10274000312540007D1D40002DE9F04F4FF0FF087E
:1027500085B0524FDFF84C91DFF84CA10546464654
:1027600008E00F293ED0FF26284600214C4B984711
:10277000002834D128682969B84780BB6C69227861
:10278000002A78D0E37AE52A03F03F01EBD01B075B
:10279000E7D40F2926D08EB9944604F10A062246C2
:1027A000034601E012F801CFD90141EA53035CFA74
:1027B00083F3B242DBB2F5D1434510D04FF6FF723E
:1027C000AB692A84DA7AD207CDD404F10B0614F867
:1027D000011B13F8012B9142C5D1B442F7D105B0CA
:1027E000BDE8F08FEB69002BBED051063FD5E988DC
:1027F00094F80D80298402F0BF06617B4145B2D177
:102800002278DFF8A8B022F04002013A02EB420C35
:1028100002EB8C0C4FF6FF78012203E0404535D1E6
:10282000CB452CD01BF8010F04EB000E205C9EF86A
:1028300001E040EA0E20002AF0D00CF101028DE800
:102840000A100392D047DDF808C0BCF1FE0F024623
:102850009DE80A001AD833F81C000292D047029A69
:1028600082429DE80A0011D1DDF80CC0D8E7B242DF
:102870007FF479AFC1E7042005B0BDE8F08F207880
:10288000400606D52AB133F81C3013B18846FF261E
:102890006AE7013EF6B2884666E700BF7D1D40004C
:1028A0000926400060544000E93440005354400081
:1028B0002DE9F04FD0F818A0C56989B00AF1FF36AC
:1028C0000446324605AB12F8011F03F8011B08A9A4
:1028D0008B42F8D19DF81F300193DA0756D4B14FDF
:1028E000019B9B0700F1C2804FF0010920460021A7
:1028F000B847002847D18246AB4EDFF8B482054680
:1029000005E01D46C0470346002840F0CE802169FF
:102910002068B047034605F1010C20460121002B39
:1029200040F0C38062691278E52A01D0002AE8D11C
:102930000DB9B4F806A01FFA8CF54D45E2D1B9F1F6
:10294000010F40F0B68020682169B047D8B96569A9
:10295000014605F120022B4603F8011B9342FBD1EF
:10296000A26905F10B002B4612F8011B03F8011BAD
:102970008342F9D1A369DB7A03F018032B73236830
:1029800001221A71002009B0BDE8F08F0023854FA5
:10299000DFF820828AF80B304FF00109E3610DF176
:1029A0001F0B324605AB13F8011B02F8011F5B45F4
:1029B000F9D1B9F1050F57D9288829464A4600E0D0
:1029C0001846D30343EA520231F8023F10FA82F26A
:1029D00092B2002BF4D1072302F00F0000F1300176
:1029E000392988BF00F13701013B03A81844C2F31D
:1029F0000F124170002AEFD108A919447E2001F876
:102A0000140C002B4FD09AF80010202914D05146F6
:102A100003E011F8010F20280ED001329A42F8D1BC
:102A2000072B0BD808A91944013311F8141C0AF814
:102A300002100132072A07D8072BF3D920210AF800
:102A400002100132072AF7D920460021B84710BBEF
:102A50002046C047F8B909F101091FFA89F9B9F10F
:102A6000640F9ED107208EE74A46B4E72B88002BDF
:102A70003FF43AAF002301339BB235F81320002A0C
:102A8000F9D14A4A193382FB0319DB17C3EBA909B1
:102A90001FFA89F92AE704287FF475AF019B8AF8A9
:102AA0000B30E5611CE71A46C6E7184609B0BDE8D9
:102AB000F08F51462046B84703460028F5D1A26959
:102AC000834602F10B0012F8013B4FEACB1141EAB9
:102AD0005B0B53FA8BFB82425FFA8BFBF3D109F15C
:102AE000FF391FFA89F9DFF8D080CDF800B0CB4666
:102AF00020682169B04703460028D6D15FFA8BFAD7
:102B00006569009BD4F81C906B730AF1FF3202EBED
:102B100042010F27034602EB8101EF722873A8766A
:102B2000E87602464FF6FF77FF2010E039F81130C3
:102B300005F80E300132AE444FEA132C002B08BFCB
:102B40003B460D2A01F101018EF801C00CD0BB42B9
:102B500018F802E0EAD105EB0E0C01320D2A05F857
:102B60000E008CF80100F2D14FF6FF72934202D0B2
:102B700039F811300BB94AF0400A85F800A02368F3
:102B80000B4A012119712046002190470346002875
:102B90008BD10BF1FF3B1FFA8BFBBBF1000FA7D1D1
:102BA000D1E600BF892340007D1D40004FECC44E9C
:102BB0000926400049274000545440002DE9F041C7
:102BC00004460D46A369164FDFF858809D4220D277
:102BD000012D0BD920462946B8470646C8B1012821
:102BE00004D0013018D0A3699D4202D30220BDE871
:102BF000F081002229462046C047012268B9236996
:102C0000591C02D0134423616271A36935469D4269
:102C1000DED30020BDE8F0810120BDE8F08100BFD7
:102C2000BD224000312440002DE9F04F0B782F2BBE
:102C300083B08946064600F033815C2B00F030817A
:102C40000024B46099F800001F2840F23281A74D9B
:102C500001E019F8010F2F28FBD05C28F9D01F28BC
:102C6000F76940F2EC802F282DD05C282BD0012171
:102C7000A7F1020BCA460124A84700B37F2809D850
:102C800022281CD09A4A01E0984218D012F8013F3D
:102C9000002BF9D12BF8020F1AF8010F1F2804F1AD
:102CA000010340F2CE802F280FD05C280DD0B3F561
:102CB000807F04D001211C46A8470028DED10620D1
:102CC00003B0BDE8F08F0024012399444FF0000BBE
:102CD000002CF4D007EB440030F8022D202A01D05C
:102CE0002E2A02D1013CF7D1E9E7002327F814305E
:102CF000B36907EB440003F10B01202203F8012B19
:102D00008B42FBD1BB1E4FF0000A01E00AF1010A21
:102D100033F8022F202AF9D02E2AF7D0BAF1000F6B
:102D200001D04BF0030B034633F8021D2E2901D0CE
:102D3000013CF9D14FF0000C1046E04608230AF19F
:102D4000010A78B320281FD02E281BD09C4520D202
:102D500054457AD07F2800F283802B2800F09080A1
:102D6000644A02E0884200F08B8012F8011F0029BB
:102D7000F8D1A0F14101192900F2A68048F002081B
:102D8000C0B280E0544560D04BF0030B37F81A0016
:102D9000D5E70B2B00F0A680544558D0A2454BF048
:102DA000030B54D9B1690878E52875D0082B04BF06
:102DB0004FEA88025FFA82F808F00C030C2B68D007
:102DC00008F00300032864D01BF0020F09D108F0BB
:102DD0000302012A08BF4BF0100B042B08BF4BF075
:102DE000080B81F80BB030460021434B9847D0B90F
:102DF000424B30469847B369DB7AB0B959073FF583
:102E00005FAF7369DA7AD20668D55C7D1A7DD87EA9
:102E1000997E42EA042241EA002343EA0243B36076
:102E200099F8000017E7B369DB7A04287FF448AF0C
:102E300013F0040F08BF052003B0BDE8F08F002495
:102E4000012399444FF0040B42E70B2B4AD04FEA81
:102E500088025FFA82F8A2460B234FF0080C95E730
:102E600000218DE80810A8479DE8081048B3244ABF
:102E700010444BF0020B10F8800C00287FF46DAF6B
:102E80004BF0030B5F20B16901F80C000CF1010C51
:102E90007CE74BF0020B97E705200870B16985E7E6
:102EA00009F101090024B46099F800001F283FF6D9
:102EB000CEAE30462146104B9847746103B0BDE852
:102EC000F08F4BF0020BDBE7A0F16101192997BFEE
:102ED0002038C0B2C0B248F00108D4E7052003B0E2
:102EE000BDE8F08F4BF0030B0B235BE79D344000F4
:102EF000405440004C544000892340004927400082
:102F0000C0534000F0B410B10B20F0BC70470B4D23
:102F10002B685BB10A4C074626462258934208BFED
:102F200087510C302428F8D100221A7009B10023EF
:102F30000B7029600020F0BC704700BF600E0020BD
:102F40003C0E00202DE9F04FADF50F7D002303600E
:102F50001646019102F01E029A4B044605A901A8EB
:102F6000984702AB0EAA0B930C9206F01F0730B1E4
:102F700016F01C0F1AD10DF50F7DBDE8F08F0199E9
:102F8000914B05A898470A9D0028F1D1002D00F02B
:102F9000AB8037F001080CBF0021012105A88B4B45
:102FA000984716F01C0F1BD0002850D00428E2D1FF
:102FB000874B1A682AB1DA681AB19B691220002B74
:102FC000D9D105A8834B984747F008070A9D0028E8
:102FD000D1D1380700F18A80059E27F0010811E061
:102FE0000028C8D1EB7AD9063ED4B20701D5DB0759
:102FF00035D406F00803DBB2059E1BB147F020076D
:1030000027F00108F36A0798BDF81AC0724AE36115
:103010002562002352F8081CB1422AD00133032B49
:1030200002F10C02F6D16A4A1368002B00F09A8074
:10303000D368002B00F095809369002B00F0AC80E2
:103040000023022063620DF50F7DBDE8F08FEB7A5F
:1030500013F0110F03D17607BBD508208BE70720AB
:103060000DF50F7DBDE8F08F04200DF50F7DBDE857
:10307000F08F52F8041C8142D0D111886145CDD126
:103080005900534AC81802EB80004089B8F1000F7C
:1030900061D1013080B2194402EB810201335081C9
:1030A0006362002B52D0A771687DA97E2A7DEB7EDA
:1030B00042EA002241EA032343EA02432361AB7F51
:1030C000E87F297F6A7F26601B0443EA00630B4385
:1030D000002043EA0223E360A060A061F388A3809C
:1030E0000DF50F7DBDE8F08F062041E73B4B98477B
:1030F00095F815C0AB7E297DEA7E059EA8734FEA40
:10310000104841EA0C2143EA0222C0F307290023B8
:1031100085F81080000E4FF0010C52EA014885F846
:103120000F906874EB722B776B77AB77EB77AB769E
:10313000EB762B756B7586F804C03FF45FAFE04506
:10314000D6F82C9002D0B369984527D302200DF50C
:103150000F7DBDE8F08F00287FF472AF4FF48070D0
:1031600099E70123590001EB030C4FEA8C0C02EBA9
:103170000C0042F80C60DDF81CB0BDF81AA0C0F8D5
:1031800004B04FF0000CA0F808A0A0F80AC0B8F1F5
:10319000000FE3D140467CE70223E3E73046414697
:1031A0000F4B984700287FF4E6AE05980D4B08F1C9
:1031B000FF324946C260984700287FF4DCAE059E86
:1031C0001CE700BF8D1F4000292C40000D1D400052
:1031D0003C0E0020B1284000440E0020B51C4000E9
:1031E000BD2B40007D1D40002DE9F04F9B4606465B
:1031F0000023CBF8003083B00D460068B188624BE5
:103200001446984728B9B3791F0605D4D80707D4C0
:10321000072003B0BDE8F08F022003B0BDE8F08FB7
:10322000B168F7687F1ABC4238BF2746002F00F00C
:10323000A880C1F30803DFF85881DFF85891002B0C
:103240003ED130688378013B03EA512313F0FF033A
:103250004BD072698169A2F1020C02398C4571D29E
:103260008278816A02FB0C1100296BD07C0A01EB89
:10327000030A43D01919914288BFC3EB0204E3B299
:10328000407829465246C047B379002861D15A0692
:1032900004D5B369CAEB03039C425FD86202B168EC
:1032A000AB181144B160DBF80010BF1A11441D4681
:1032B000CBF8001065D0B168C1F30803002BC0D073
:1032C000C3F5007203F12804BA4228BF3A463444D9
:1032D0002B46002AE5D0AB18294614F8015B01F80B
:1032E000015B9942F9D1B168DBE729BB3269012A58
:1032F00028D9511C2CD030687261ABE7B2695245B5
:1033000014D0B3795B0606F1280409D5012340786F
:103310002146C847B379E0B923F040033068B37160
:103320004078214652460123C04788B9B168C6F8A3
:1033300018A0C1F30803C3E77169012902D98269A2
:10334000914218D3B37963F07F03B371022060E731
:10335000B37963F07F03B37101205AE705EB432390
:1033600003F5007006F1280212F8011B03F8011B97
:103370008342F9D192E70193044A9047019B0246A8
:10338000B5E7002045E700BFD91E4000BD22400040
:103390005D1B4000D11B400038B50446274B006838
:1033A000A1889847D0B9A27902F0200303F0FF006A
:1033B000A3B153060DD52146A26951F8283B204DF3
:1033C00058780123A847002836D1A37923F0400379
:1033D000A3712068E1691B4B984700B138BD256A8D
:1033E000194AEB7A43F02003EB72E3682B77A38949
:1033F0001B0A6B77E389AB77E37BEB772369AB76CB
:10340000238A1B0AEB76638A2B75638A1B0A6B750A
:103410009047C0F30721020C030EE9752A76A875C0
:103420006B76A0792368094A20F020000121A07161
:1034300019712068904738BD0120CFE7D91E4000A0
:10344000D11B40007D1D4000B51C4000011E400006
:10345000F8B5104B0446984798B9636A013B022BB4
:1034600010D85D000C49EA1801EB82020832568838
:1034700026F4807747B1013EB6B256802EB10023C4
:103480002360F8BD0220F8BD50802B449B00002231
:10349000CA50F4E7993340003C0E00207F2810B456
:1034A0000ED981B90E4B01E0802915D033F8022FD7
:1034B00082428CB201F10101F6D104F1800080B2A8
:1034C0005DF8044B7047FF2806D88038054B5DF83F
:1034D000044B33F81000704700205DF8044B704730
:1034E000425640004456400061280AD00749002255
:1034F00001E0834206D031F8023F0132002BF8D1BF
:1035000070470022024B33F81200704764544000A9
:103510004457400043685A684A6042688A605A6863
:10352000916059604160086103680133036070472E
:10353000436882689A60836842685A6003695A687F
:10354000824204BF82685A60002202611A68013A0E
:103550001A607047064B19680868B0E8F00F80F3EE
:1035600009884FF0000080F311884EF00D0E70476F
:10357000200F0020EFF309800C4B1A6820E9F00FB0
:1035800010602DE908404FF0000080F3118800F032
:10359000B9F84FF0000080F31188BDE808401968C1
:1035A0000868B0E8F00F80F309887047200F00200A
:1035B00008B5074B4FF080521A604FF0000080F3BF
:1035C0001188044B98474FF0000080F3118808BD24
:1035D00004ED00E0D93540002DE9F04F3E4B1B686B
:1035E00083B0002B50D13D4C236801332360236806
:1035F000002B50D03A4A01921368226837499A4208
:1036000046D3384D2B681B68002B36D02B68DB68FF
:10361000D3F80CB00968DBF804208A4257D8324F3F
:10362000324EDFF8D890DFF8D88009E02D4A1368D1
:10363000DB68D3F80CB02168DBF804208A4246D856
:103640000BF1040A5046B847DBF828200BF11800AC
:103650000AB1254A9047DBF82C303268934203EBDD
:10366000830088BF214A09EB8000514688BF136060
:10367000C0472B681B68002BD8D1019A4FF0FF334D
:10368000136003B0BDE8F08F194B1A6801321A605D
:1036900003B0BDE8F08F134B16491868164A0D6841
:1036A0001D6008601168013111601A68126832B932
:1036B0000B4B0B4A01934FF0FF3313609DE71B68E0
:1036C000074ADB680192DB685B68136095E7019B42
:1036D0001A6003B0BDE8F08F240F0020680E0020B0
:1036E000B8000020140F002031354000640E002087
:1036F000280F00200C0F0020300F00206C0E00203F
:103700001535400030B4294B1B68002B34D1284BB1
:1037100028491A6802EB820292008A584AB91A684C
:10372000013A1A601A6802EB820251F82220002A3C
:10373000F5D01B6803EB830301EB830101F1080261
:103740004B685B684B6093422CD01B491B4A08684E
:10375000DB68136070B1136819485C6C03689C42A5
:1037600008D0184B184D1C682D680834A54208D89D
:1037700000230B6030BC7047144B01221A6030BC30
:103780007047134912681C680D681968526C026012
:1037900004311960186819682560043102601960E5
:1037A00030BC70475B684B60CFE700BF240F002040
:1037B000640E00206C0E0020100F0020200F00204F
:1037C000B40000201C0F00202C0F0020180F002038
:1037D000680E002008B50448044B98470448054982
:1037E000054B984708BD00BF50140E4019454000D6
:1037F000BC00002024594000F53D4000F8B50B4EB8
:103800000B4BD6F800010B4D0F4698470A4B044668
:10381000014628469847BC42EB6C064804BF01238A
:1038200086F80E312146054B9847F8BDD40000209C
:10383000FD42400000100E4039414000314140003F
:10384000F8B50B4E0B4BD6F8F0000B4D0F469847D2
:103850000A4B0446014628469847BC42EB6C064892
:1038600004BF012386F8FE302146054B9847F8BD7A
:10387000D4000020FD424000000E0E4039414000BF
:1038800031414000F8B50B4E0B4B306E0B4D0F46DF
:1038900098470B4B0446014628469847BC42EB6CC0
:1038A000064804BF012386F86E302146054B984731
:1038B000F8BD00BFD4000020FD424000000E0E40C5
:1038C0003941400031414000F8B50B4E0B4B306D93
:1038D0000B4D0F4698470B4B044601462846984728
:1038E000BC42EB6C064804BF012386F85E302146DB
:1038F000054B9847F8BD00BFD4000020FD424000B2
:10390000000E0E403941400031414000F8B50B4EE9
:103910000B4B306C0B4D0F4698470B4B0446014642
:1039200028469847BC42EB6C064804BF012386F842
:103930004E302146054B9847F8BD00BFD40000200B
:10394000FD424000000E0E40394140003141400030
:10395000F8B50B4E0B4B306B0B4D0F4698470B4B8E
:103960000446014628469847BC42EB6C064804BF13
:10397000012386F83E302146054B9847F8BD00BF2D
:10398000D4000020FD424000000E0E4039414000AE
:1039900031414000F8B50B4E0B4B306A0B4D0F46D2
:1039A00098470B4B0446014628469847BC42EB6CAF
:1039B000064804BF012386F82E302146054B984760
:1039C000F8BD00BFD4000020FD424000000E0E40B4
:1039D0003941400031414000F8B50A4E0A4B306988
:1039E0000A4D0F4698470A4B044601462846984719
:1039F000BC42EB6C054804BF0123B3772146054B5D
:103A00009847F8BDD4000020FD424000000E0E4053
:103A10003941400031414000F8B50A4E0A4B306848
:103A20000A4D0F4698470A4B0446014628469847D8
:103A3000BC42EB6C054804BF0123B3732146054B20
:103A40009847F8BDD4000020FD424000000E0E4013
:103A500039414000314140002DE9F0410379012B0B
:103A600082B0044611D04279344B0068012A14BF59
:103A70004FF040554FF06055984729462068304B2D
:103A80009847002002B0BDE8F081027B2D4F437BB8
:103A9000012A18BF4FF02057012B41D02A4D2B4E41
:103AA000264B20689847264B206839469847A379CB
:103AB000032B2ED8264A206852F82380A8470546B3
:103AC0002068B04718F0700F064619D02068214BC7
:103AD0009847A36800930746014632464346284666
:103AE0001D4CA04731461D4B284698477AB25209D3
:103AF00007F01F0701211A4B01FA07F743F822705C
:103B0000D5F8903000201E43C5F8906002B0BDE8A3
:103B1000F0812068A84705462068B0470646EFE7D1
:103B2000094D0068094EA84780462068B047052225
:103B300001460C4B40469847B2E700BFD5444000D1
:103B4000A141400001000028E5424000FD42400044
:103B50003C594000F5424000814340003141400063
:103B600000E100E02D404000F8B50B4B0B4CD3F8C2
:103B700014210B4F42F44062C3F8142104F58876F7
:103B800000252046B8471034002818BF0125B4424C
:103B9000F7D12846F8BD00BF00020E40D400002037
:103BA000593A400010B5074B00011A1814793CB976
:103BB000012918580CBF044B044B9847204610BDF0
:103BC000012010BDD400002045414000614140006B
:103BD0000A4B00011858430903F5001303F2077359
:103BE0005B0200F01F00DA6B012303FA00F00240D1
:103BF00008BF13460B700020704700BFD4000020A0
:103C000008B5034A034B000110589847002008BD2F
:103C1000D40000207D41400010B5B1F8043282B0DC
:103C20000022B3F5007F0C46019228D00CD3B4F8E3
:103C30000232B3F5007F04BF0023A4F8023201234F
:103C400084F8073202B010BD01A9144B984740B167
:103C5000B4F80432B3F5007F04BF012384F80832BE
:103C6000E5E7B4F80222019BA354B4F8043201330F
:103C700001329BB2A4F80222A4F80432EAE7D1F898
:103C80000C32064A01330121C4F80C3284F80912BF
:103C900001A99047B4F80432DCE700BFED1A4000F8
:103CA00070B5B1F81434B3F5007F0C4602460FD05E
:103CB0008BB981F816344FF40071234B9847B4F850
:103CC0001024B2F5007F04BF0023A4F8103470BDA7
:103CD000002184F81714B4F810141C4865188242A7
:103CE00095F8105210D01A4882421FD019488242CB
:103CF00023D01948824212D04A1C92B2013BA4F848
:103D00001024A4F81434DCE7144E10482946B047B8
:103D10000028FAD1B4F81014B4F81434ECE7104EBB
:103D20000D482946B0470028FAD1F3E70B4E084862
:103D30002946B0470028FAD1ECE7094E0548294644
:103D4000B0470028FAD1E5E7B91A400000060E4056
:103D500000080E400040024000800240C11A4000AE
:103D6000D91A400038B504461F4B00680D464FF481
:103D70000071984762691D4802EB421200EB421342
:103D8000B3F81424B2F5007F21D00ED2B3F8121488
:103D90000132581892B20131B2F5007F80F810520A
:103DA000A3F81424A3F8121419D0B3F81224B2F50E
:103DB000007F04BF0022A3F81224012283F81624F6
:103DC00020680B4B4FF400719847002038BDD3F8A2
:103DD0001C2401210A44C3F81C2483F8181401226E
:103DE00083F81724E1E700BFD51A400044140020EF
:103DF000D11A40002DE9F041094B064608460D4610
:103E00009847071E09DDDFF81C8000243046295D35
:103E1000C04700B90134A742F8DCBDE8F08100BF1B
:103E2000154F4000653D400010B50C480C4B9847BD
:103E3000C207044603D50B4991F8063253B9A305CE
:103E400003D5084991F8063203B910BD0348064B63
:103E5000984710BD0148054B9847F0E700060E4013
:103E6000BD1A400044140020A13C4000193C400011
:103E700010B50E480E4B9847C207044603D50D49AE
:103E800091F8263663B9A30503D50A4991F8263679
:103E900003B910BD01F584610448074B984710BD74
:103EA00001F584610148054B9847ECE700080E4096
:103EB000BD1A400044140020A13C4000193C4000C1
:103EC00010B50E480E4B9847C207044603D50D495E
:103ED00091F8463A63B9A30503D50A4991F8463AE1
:103EE00003B910BD01F504610448074B984710BDA4
:103EF00001F504610148054B9847ECE7004002409A
:103F0000BD1A400044140020A13C4000193C400070
:103F100010B50E480E4B9847C207044603D50D490D
:103F200091F8663E63B9A30503D50A4991F8663E48
:103F300003B910BD01F546610448074B984710BD11
:103F400001F546610148054B9847ECE700800240C7
:103F5000BD1A400044140020A13C4000193C400020
:103F600038B50E480E4D0F4CA84700203E210E4B91
:103F70009847A0470028FCD00C4B0D4C98470D4BA0
:103F80000D4A9A62A0470028FCD00C4B102098479D
:103F90000B4B98470148A84738BD00BF000E2707C4
:103FA000A1464000A544400051444000B5444000B3
:103FB000C544400000040E40013F0E20F94340007C
:103FC000B945400038B50B20134D144CA8470C20C0
:103FD000A8474FF0C0511C20A0474FF0C0511D20F2
:103FE000A0474FF0C0511E20A0474FF0C0511F20E6
:103FF000A0474FF0C0511A20A0474FF0C0511B20DE
:10400000A04707492B20A047064B07480C214FF03B
:104010000062984738BD00BFD5444000A141400030
:10402000010000285942400000100E4052004FF499
:104030000043B3FBF2F2013AC2F30D02C0F8841060
:10404000C0F88C20704700BFB1F1C05F10B442646B
:1040500030D012D8B1F1006F20D0B1F1805F1AD109
:10406000036F13430367436F416F0B4023EA02035F
:10407000436742605DF8044B7047B1F1205FF9D0AF
:1040800022D8B1F1005FF4D1036F13430367436F8C
:1040900013434367EDE70029EBD1EBE7016F046FB2
:1040A000D343214019400167416F446F21400B40C9
:1040B0004367DEE7036F016F0B4023EA02030367E8
:1040C000436F13434367D4E7B1F1405FD2D0B1F1FE
:1040D000605FCFD0CDE700BFD30741644CBF4166DE
:1040E000016612F00A0F14BF01624162930706D401
:1040F000130748BFC0F88410416101607047C0F8E1
:104100008010416101607047D3060ED59306C0F858
:10411000B0104CBFC0F8D410C0F8D01053064CBF3C
:10412000C0F8C010C0F8C4107047C0F8B410704791
:10413000C36C0164704700BF41647047C06C704736
:10414000806C7047430903F5001303F207735B02A9
:1041500000F01F00012202FA00F01863704700BF50
:10416000430903F5001303F207735B0200F01F001D
:10417000012202FA00F05863704700BF430903F5BB
:10418000001303F207735B0200F01F009A6B01211A
:1041900001FA00F0104214BF58631863704700BF63
:1041A000F8B544090D4604F5001401F0F04104F29D
:1041B0000774B1F1005F4FEA44240BD019D8B1F174
:1041C000805F07D0B1F1C05F04D0B1F1006F01D0C2
:1041D0000020F8BD012600F01F0006FA00F73A465D
:1041E00020461B4B9847ED074CBF67662766304655
:1041F000F8BDB1F1405F10D0B1F1605F0DD0B1F109
:10420000205FE5D1012600F01F012A46204606FA6C
:1042100001F1104B98473046F8BD00F01F00012314
:10422000834005F00401E807636405F060524CBF69
:104230006366236649B12365B2F1605F0CBF2363F7
:104240006363236123600120F8BD6365F4E700BF69
:1042500049404000D940400002F0F043B3F1005F14
:1042600070B5144606460D460BD014D8B3F1805FE6
:1042700007D0B3F1C05F04D0B3F1006F01D00020CC
:1042800070BD19462A46154B9847E0074CBF756626
:104290003566012070BDB3F1405F09D0B3F1605FB6
:1042A00006D0B3F1205FEAD10D4B9847012070BDD5
:1042B000E10704F00402756404F060534CBF7566B6
:1042C00035664AB13565B3F1605F0CBF3563756320
:1042D00035613560012070BD7565F4E749404000E7
:1042E000D9404000400900F5001000F2077040027C
:1042F000704700BF40090B30704700BF012300F03A
:104300001F0003FA00F070472DE9F041174B80467B
:104310000E469847164B054640469847054018D02C
:10432000144C04F1B00703E0BC4212D0103485B144
:1043300054F80C3CB342F7D154F8081C2942F3D08E
:1043400023683046984754F8083CBC4225EA0305E8
:10435000ECD1094B1B6833B1084B1B680BB14046CD
:104360009847BDE8F081BDE8F08100BF3D414000C5
:1043700041414000480F0020C4240020380F002095
:104380002DE9F8430F4D2C680B2C8C46164602D9AC
:104390000120BDE8F883DFF83080DFF830904FEA85
:1043A000041E08EB0E0748F80EC01146BB601A4603
:1043B000089B7E600134FB602C60C8470020BDE88C
:1043C000F88300BF340F00203C0F0020094140005B
:1043D00008B50248024B0B21984708BD000E0E405D
:1043E0000943400008B50248024B0C21984708BD1C
:1043F00000100E400943400014490B6B23F070037A
:10440000184308638B6E1B0707D44FF4006301E069
:10441000013B16D08A6E1007FAD50C490B6B23F0BE
:10442000030343F002030B63886E10F008000AD107
:104430004FF4006301E0013B03D08A6E1207FAD506
:104440007047012070470020704700BF00040E40F5
:10445000C8B9114B1A6A22F45C1222F00302090255
:1044600042F45C1289B242F001020A431A62194610
:104470008B6E094ADB07FBD5136A43F09B7343F449
:104480008033136270470449044A086A044B0240AF
:1044900013430B62704700BF00040E40FCFFC8FED0
:1044A00002003701024B986E00F48030704700BF65
:1044B00000040E40024B4FF000529A62704700BF5A
:1044C00000040E40024B986E00F00200704700BFDF
:1044D00000040E40222819D81F280E4B09D80121AC
:1044E0009A6901FA00F00240904211D01861002050
:1044F000704720380121D3F8082101FA00F002406A
:10450000904205D0C3F80001002070470120704799
:104510000020704700040E4080687047FEE700BF2F
:104520001C481D4B984210B525D91C4A93420AD20B
:10453000D9430A4422F003040434002281589950DC
:104540000432A242FAD100BF154B164A93420AD256
:10455000D9430A4422F0030119440022043B43F8E2
:10456000042F8B42FBD1104B104A9A60104B984796
:10457000104B9847FEE7E6D208490438CA1A10449F
:10458000002AE0D00A46541A245842F8044D9342B7
:10459000F9D1D8E778594000000000202C0A00200B
:1045A000000C0020CC24002000ED00E000004000C2
:1045B0008947400055474000324B1A6B02F0030216
:1045C000012A3AD023D31A6AD20147D52E4A2F485E
:1045D00010602C4B196B01F0030102290BBF996A83
:1045E000D96A9B6ADB6AC1F30A4101FB0000DBB2B6
:1045F000B0FBF3F0234B1060196B01F070017029D0
:1046000015D1234BA3FB0010400810607047214BCD
:104610001D4A5B691B064CBF4FF400404FF4FA4043
:104620001060184B196B01F070017029E9D01B6BF9
:10463000C3F30213D840106070471A6A12F0807FEB
:10464000114A08D1144810601B6A03F07003102B44
:1046500014D0202BE5D10D481060E2E70A4A0E483D
:1046600010601B6A03F07003102B04D0202BB0D114
:1046700006481060ADE709481060AAE707481060D7
:10468000CFE700BF00040E40E8010020001BB70088
:10469000ABAAAAAA10140E4000093D0000127A002D
:1046A0000F4B984212D90F4B98420BD90E4B9842A0
:1046B00011D90E4B98420E4B8CBF0E4A4FF004227C
:1046C0001A6070470A4B0C4A1A607047084B4FF04B
:1046D00080621A607047064B084A1A60704700BF34
:1046E0003F81BA017F027503FFC53E05FF0D270715
:1046F000000A0E400005000400010004000200044E
:10470000074A084913683BB118448142A6BF1060AC
:1047100018464FF0FF307047034B1360F4E700BFBB
:10472000FC0F0020FCFF0020D0540020FEE700BF5B
:10473000FEE700BFFEE700BFFEE700BF08B5034B82
:10474000034A196801311960904708BD0010002024
:10475000B135400008B5074B01221A70BFF35F8FD7
:1047600062B6054B054C9847054B98470548A0474E
:10477000FCE700BFE4010020613F4000850000200D
:104780000505400025CA820070B50F4E0F4D761BFF
:10479000B61007D0043D0024013455F8043F984773
:1047A000A642F9D10A4E0B4D761B01F0D3F8B61094
:1047B00008D0043D0024013455F8043F9847A64230
:1047C000F9D170BD70BD00BF605940006059400014
:1047D0006859400060594000024B0146186800F0DB
:1047E00003B800BF180600202DE9F04F01F10B05BA
:1047F000162D83B0064627D935F0070527D4A942E0
:1048000025D8304600F070FBB5F5FC7F26D2C14FAD
:104810004FEAD50C07EBCC03DC689C4200F0D28158
:104820006368E268A16823F00303234430465D68AF
:10483000CA6045F0010591605D6000F057FB0834E7
:10484000204603B0BDE8F08F1025A942D9D9002435
:104850000C232046336003B0BDE8F08F5FEA552C8F
:1048600000F08A80BCF1040F00F260814FEA951CD1
:104870000CF1380C4FEA4C01A64F07EB8101CC68D4
:10488000A14205D10CE0002B7ADAE468A14207D0FE
:10489000626822F00302531B0F2BF4DD0CF1FF3C86
:1048A0000CF1010C9B4B3C6903F1080E744500F0C0
:1048B0007E81616821F003014A1B0F2A00F36481A5
:1048C000002AC3F814E0C3F810E06ADAB1F5007FFB
:1048D00080F03A81C90803EBC1004FEAA1085A6889
:1048E0008168A1604FF0010909FA08F848EA02025C
:1048F000E0605A608460CC604FEAAC0301209840CD
:1049000090425BD8024206D12CF0030C40000242D8
:104910000CF1040CFAD007EBCC084446E146E368FE
:104920009C4207D145E1002A80F25681DB689C4217
:1049300000F03F81596821F003014A1B0F2AF2DD84
:104940001C46D3F80CC054F8088F591945F00109DA
:1049500042F00105C3F804903046C8F80CC0CCF80A
:10496000088079613961C1F80CE0C1F808E04D6058
:104970008A5000F0BBFA63E77E214FF03F0C7BE7E3
:104980002244E3685068A16840F00105CB603046DE
:104990009960556000F0AAFA0834204603B0BDE8DB
:1049A000F08F214430464B6843F001034B6000F028
:1049B0009DFA0834204603B0BDE8F08FBC686368F8
:1049C00023F00309A94504D3C5EB09030F2B00F31A
:1049D0009180514B514A19681368013305EB010A64
:1049E00004EB090B00F061810AF5805A0AF10F0A05
:1049F0002AF47F6A2AF00F0A30465146019200F0ED
:104A000077FAB0F1FF3F8046019A00F000818345BC
:104A100000F2FA80DFF810C1DCF80030C3455344DF
:104A2000CCF8003000F04A8112683C4901321BBFCB
:104A3000CBEB080B5B44C1F80080CCF8003018F0D9
:104A4000070300F01381C3F10802C3F580539044BB
:104A50000833C244CAF30B0ACAEB030A5146304674
:104A6000CDF804C000F044FA431CDDF804C000F0A7
:104A70003581C8EB0002524442F00102DCF80030FC
:104A8000C7F808805344BC42C8F80420CCF8003072
:104A9000DFF894A015D0B9F10F0F40F2EA806168F9
:104AA000A9F10C0222F0070201F0010EA118052065
:104AB00042EA0E0E0F2AC4F804E04860886000F253
:104AC0001181174ABC6811688B4288BF1360154A70
:104AD00011688B4288BF1360626822F0030295421E
:104AE000C5EB020301D80F2B04DC304600F0FEF9C1
:104AF0000024A5E6621943F0010345F00105656055
:104B00003046BA60536000F0F1F90834204603B033
:104B1000BDE8F08F1C0600200C100020280A0020A1
:104B2000081000200410002010100020BCF1140F09
:104B300061D9BCF1540F00F28F804FEA153C0CF1A3
:104B40006E0C4FEA4C0197E64B0A042B58D9142BF4
:104B500000F2AE8003F15B02500007EB8000DFF84B
:104B6000BC818368834200F08A805A6822F0030285
:104B7000914202D29B689842F7D1D9687A68E16085
:104B8000A3608C60DC60B7E6611942F0010745F074
:104B900001056560304659611961C1F80CE0C1F842
:104BA00008E04F608A50083400F0A0F948E65A68DF
:104BB000A2E609F1010919F0030F04F108047FF4DA
:104BC000AEAE2DE004F108036469A34208BF0CF106
:104BD000020C3FF467AE23E619441C464868DB68C4
:104BE00054F8082F40F001054D603046D3609A60BC
:104BF00000F07CF924E60CF15B0C4FEA4C013BE63B
:104C00008A0938325000A8E7BC423FF403AFBC68C1
:104C1000626822F0030262E7D8F8008098457BD1F1
:104C20001CF0030FA8F108030CF1FF3CF4D17B68E2
:104C300023EA00037B60400098423FF6BFAE0028A5
:104C40003FF4BCAE0342CC467FF465AE4000034265
:104C50000CF1040CFAD05EE6BCF5AA7F1AD84FEA34
:104C6000D53C0CF1770C4FEA4C0105E64FF480532C
:104C7000EFE60123C8F80430444600222FE79110E4
:104C80000120D8F8042000FA01F10A43C8F80420F2
:104C9000194674E740F254539C451BD84FEA954C93
:104CA0000CF17C0C4FEA4C01E6E50AF1100AA3E690
:104CB000542B1FD80A0B6E3250004EE7CBF30B017A
:104CC00000297FF4B1AE0AEB0901BA6841F0010195
:104CD0005160F6E6FC214FF07E0CCDE501224FF04D
:104CE000000ACBE604F10801304600F0B9F9DAF821
:104CF0000030E6E6B3F5AA7F03D8CA0B773250003E
:104D00002BE740F25452934203D88A0C7C32500075
:104D100023E7FC207E2220E77B688CE71C0600202E
:104D2000844641EA000313F003036DD1403A41D3B6
:104D300051F8043B40F8043B51F8043B40F8043B75
:104D400051F8043B40F8043B51F8043B40F8043B65
:104D500051F8043B40F8043B51F8043B40F8043B55
:104D600051F8043B40F8043B51F8043B40F8043B45
:104D700051F8043B40F8043B51F8043B40F8043B35
:104D800051F8043B40F8043B51F8043B40F8043B25
:104D900051F8043B40F8043B51F8043B40F8043B15
:104DA00051F8043B40F8043B51F8043B40F8043B05
:104DB000403ABDD2303211D351F8043B40F8043BA5
:104DC00051F8043B40F8043B51F8043B40F8043BE5
:104DD00051F8043B40F8043B103AEDD20C3205D3B5
:104DE00051F8043B40F8043B043AF9D2043208D0AD
:104DF000D2071CBF11F8013B00F8013B01D30B881F
:104E000003806046704700BF082A13D38B078DD0FC
:104E100010F003038AD0C3F10403D21ADB071CBFCE
:104E200011F8013B00F8013B80D331F8023B20F838
:104E3000023B7BE7043AD9D3013A11F8013B00F871
:104E4000013BF9D20B7803704B7843708B788370F9
:104E500060467047F0B4840743D0541E002A3ED009
:104E6000CDB2034603E0621E002C38D0144603F88E
:104E7000015B9A07F7D1032C2AD9CDB245EA052563
:104E80000F2C45EA054515D9A4F110073F0903F198
:104E9000100606EB07161A46156055609560D5603A
:104EA0001032B242F8D104F00F040137032C03EBA7
:104EB00007130DD91E462246043A032A46F8045B1E
:104EC000FAD8221F22F003020432134404F0030430
:104ED0002CB1C9B21C4403F8011BA342FBD1F0BCA6
:104EE000704714460346C6E7704700BF704700BFCF
:104EF00038B5074C0023054608462360FFF700FC41
:104F0000431C00D038BD2368002BFBD02B6038BD7C
:104F1000C824002020F0030110F00300C0F10000BD
:104F200051F8043B00F1040C4FEACC0C6FF0000286
:104F30001CBF22FA0CF213434FF0010C4CEA0C2C6C
:104F40004CEA0C4CA3EB0C0222EA030212EACC124C
:104F500004BF51F8043B0430F4D013F0FF0F1FBF1F
:104F6000013013F47F4F013013F47F0F18BF01306D
:104F7000704700BF024B13B1024800F005B87047FC
:104F800000000000954F4000014600200246034605
:104F900000F034B938B5094D094C641BA41018BF92
:104FA00005EB840505D0013C55F8043D9847002CDD
:104FB000F9D1BDE8384000F0D7BC00BF74594000BB
:104FC00078594000F8B5234D0F460446FFF78CFF93
:104FD000AB685E6826F00306F11B01F6EF7121F461
:104FE0007F6121F00F01A1F58057B7F5805F07DBE6
:104FF00020460021FFF77CFFAB683344984204D081
:105000002046FFF773FF0020F8BD20467942FFF7E6
:105010006FFF01300DD0104BAA681968F61B46F0DF
:1050200001062046C91B56601960FFF75FFF01208B
:10503000F8BD20460021FFF75BFFAB68C21A0F2ABC
:10504000DEDD064D04492D6842F00102401B5A6026
:105050000860D5E71C06002010100020280A002058
:105060002DE9F0410D460646002955D0FFF73CFFDB
:1050700055F8041CDFF874C121F00103A5F1080400
:10508000E218DCF808005768904227F0030769D05F
:1050900011F00101576032D00021D0194068C007DB
:1050A00006D43B44906800294ED0D268C26090601C
:1050B00043F001026260E350E1B9B3F5007F2DD304
:1050C0005A0A042A6AD89809383041000CEB810C3E
:1050D0004649DCF80820624566D0516821F003019A
:1050E0008B4202D292689445F7D1D368E360A26004
:1050F0009C60D4603046BDE8F041FFF7F7BE55F83C
:10510000085C641B0CF10808A06840452B4443D0A0
:10511000E568C560A860C0E7BDE8F081DB080CEB7E
:10512000C3020125DCF804009168A1609B1005FA18
:1051300003F31843E260CCF8040094603046CC607E
:10514000BDE8F041FFF7D2BE294DA842ADD143F0F2
:105150000102CCF81440CCF81040E060A06062601E
:10516000E350C7E71F44CB0707D455F8083CE41ABF
:105170001F44A268E368D3609A601E4B1B6847F027
:1051800001029F426260CCF80840B3D31A4B30460C
:105190001968FFF717FFADE701217EE7142A0CD845
:1051A00002F15B00410091E74B688010012505FA90
:1051B00000F003434B60134698E7542A03D8180BBA
:1051C0006E30410082E7B2F5AA7F03D8D80B773062
:1051D00041007BE740F254518A4203D8980C7C305E
:1051E000410073E7FC217E2070E700BF1C06002011
:1051F00024060020240A00200C100020F0B5274CC3
:105200002668D6F8484185B00746002C41D065682D
:105210001F2D1EDD224818B94FF0FF3005B0F0BD3C
:105220004FF4C870039102920193FFF7D5FA0399E6
:10523000029A019B04460028EED0D6F8485125601A
:10524000002060600546C6F84841C4F88801C4F8EB
:105250008C013FB9AB1C00200135656044F8231078
:1052600005B0F0BD04EB85004FF0010CC0F88820BC
:10527000D4F888610CFA05F21643022FC4F888614D
:10528000C0F80831E6D1D4F88C311A43C4F88C2127
:10529000E0E706F5A674C6F84841B8E75059400063
:1052A000D9474000303A6669726D776172652E6247
:1052B000696E0000000000000A0000000C00000001
:1052C0000D0000000F000000140000001900000095
:1052D0001E00000023000000280000002D00000038
:1052E00032000000370000003C00000046000000D3
:1052F000500000000A00000064000000E803000005
:105300001027000000000000000000000000000066
:10531000000000000A0000000C0000000D0000006A
:105320000F000000140000001A0000001E00000022
:1053300023000000280000002D00000034000000C1
:10534000370000003C000000460000005000000054
:105350003D1240007D1240009D124000B5124000F9
:10536000D5124000191340007D13400090534000B7
:105370004D1240008D124000A9124000C51240009D
:10538000D91240002D13400091134000A853400053
:105390002253442F4D4D43204361726420536C6F60
:1053A00074203022000000002253442F4D4D432032
:1053B0004361726420536C6F74203122000000003E
:1053C000809A90B68EB78F80D2D3D4D8D7DE8E8F06
:1053D000909292E299E3EAEB59999A9D9C9D9E9F47
:1053E000B5D6E0E9A5A5A6A7A8A9AAABAC21AEAF02
:1053F000B0B1B2B3B4B5B6B7B8B9BABBBCBDBEBF35
:10540000C0C1C2C3C4C5C7C7C8C9CACBCCCDCECF23
:10541000D0D1D2D3D4D5D6D7D8D9DADBDCDDDEDF14
:10542000E0E1E2E3E5E5E6E7E7E9EAEBEDEDEEEF03
:10543000F0F1F2F3F4F5F6F7F8F9FAFBFCFDFEFFF4
:10544000222A3A3C3E3F7C7F000000002B2C3B3D53
:105450005B5D000001030507090E10121416181CED
:105460001E000000610062006300640065006600C9
:105470006700680069006A006B006C006D006E00D8
:105480006F00700071007200730074007500760088
:105490007700780079007A00A100A200A300A5009F
:1054A000AC00AF00E000E100E200E300E400E50052
:1054B000E600E700E800E900EA00EB00EC00ED00A0
:1054C000EE00EF00F000F100F200F300F400F50050
:1054D000F600F800F900FA00FB00FC00FD00FE00F9
:1054E000FF00010103010501070109010B010D0185
:1054F0000F01110113011501170119011B011D01F4
:105500001F01210123012501270129012B012D0163
:105510002F0131013301350137013A013C013E01D0
:10552000400142014401460148014B014D014F0138
:10553000510153015501570159015B015D015F01A3
:10554000610163016501670169016B016D016F0113
:1055500071017301750177017A017C017E0192016D
:10556000B103B203B303B403B503B603B703B8037F
:10557000B903BA03BB03BC03BD03BE03BF03C0032F
:10558000C103C303C403C503C603C703C803C903D8
:10559000CA033004310432043304340435043604BD
:1055A0003704380439043A043B043C043D043E0407
:1055B0003F044004410442044304440445044604B7
:1055C0004704480449044A044B044C044D044E0467
:1055D0004F04510452045304540455045604570410
:1055E000580459045A045B045C045E045F0470218F
:1055F00071217221732174217521762177217821FF
:1056000079217A217B217C217D217E217F2141FF0F
:1056100042FF43FF44FF45FF46FF47FF48FF49FF66
:105620004AFF4BFF4CFF4DFF4EFF4FFF50FF51FF16
:1056300052FF53FF54FF55FF56FF57FF58FF59FFC6
:105640005AFF0000C700FC00E900E200E400E000AF
:10565000E500E700EA00EB00E800EF00EE00EC00F8
:10566000C400C500C900E600C600F400F600F20060
:10567000FB00F900FF00D600DC00F800A300D80012
:10568000D7009201E100ED00F300FA00F100D10033
:10569000AA00BA00BF00AE00AC00BD00BC00A10073
:1056A000AB00BB0091259225932502252425C1003E
:1056B000C200C000A9006325512557255D25A20021
:1056C000A5001025142534252C251C2500253C2556
:1056D000E300C3005A255425692566256025502519
:1056E0006C25A400F000D000CA00CB00C800310136
:1056F000CD00CE00CF0018250C2588258425A600D6
:10570000CC008025D300DF00D400D200F500D50006
:10571000B500FE00DE00DA00DB00D900FD00DD0090
:10572000AF00B400AD00B1001720BE00B600A70066
:10573000F700B800B000A800B700B900B300B2008D
:10574000A025A0004100420043004400450046005F
:105750004700480049004A004B004C004D004E00F5
:105760004F005000510052005300540055005600A5
:105770005700580059005A002100E0FFE1FFE5FF03
:10578000E2FFE3FFC000C100C200C300C400C500C7
:10579000C600C700C800C900CA00CB00CC00CD00BD
:1057A000CE00CF00D000D100D200D300D400D5006D
:1057B000D600D800D900DA00DB00DC00DD00DE0016
:1057C0007801000102010401060108010A010C012F
:1057D0000E01100112011401160118011A011C0119
:1057E0001E01200122012401260128012A012C0189
:1057F0002E01300132013401360139013B013D01F6
:105800003F0141014301450147014A014C014E015D
:10581000500152015401560158015A015C015E01C8
:10582000600162016401660168016A016C016E0138
:10583000700172017401760179017B017D01910192
:10584000910392039303940395039603970398039C
:1058500099039A039B039C039D039E039F03A0034C
:10586000A103A303A403A503A603A703A803A903F5
:10587000AA031004110412041304140415041604DA
:105880001704180419041A041B041C041D041E0424
:105890001F042004210422042304240425042604D4
:1058A0002704280429042A042B042C042D042E0484
:1058B0002F0401040204030404040504060407047D
:1058C000080409040A040B040C040E040F046021EC
:1058D000612162216321642165216621672168219C
:1058E00069216A216B216C216D216E216F2121FFBD
:1058F00022FF23FF24FF25FF26FF27FF28FF29FF84
:105900002AFF2BFF2CFF2DFF2EFF2FFF30FF31FF33
:1059100032FF33FF34FF35FF36FF37FF38FF39FFE3
:105920003AFF000052657374617274696E67207388
:10593000797374656D2121210D0000007000000055
:105940005000000030000000100000004300000084
:10595000F0010020F8B500BFF8BC08BC9E467047B7
:10596000754F4000F1004000F8B500BFF8BC08BC1E
:085970009E467047CD00400087
:1059780070B483B0069E43B30468C9B241F0B44121
:1059880044F480340460416081680191019911F008
:105998000101F9D146B10F4C03EB860654F8045FB8
:1059A80043F8045BB342F9D1D2B242F0B442426048
:1059B80083680193019BDB07FAD5036823F48033DE
:1059C8000360084603B070BC70470221084603B064
:1059D80070BC7047FCFF3F000160704782B04160B7
:1059E80083680193019BDB07FAD5019800F00E004C
:1059F80002B07047BFF35F8F0138FBD1704700BF1B
:105A080000000000000000002B0000000000000063
:105A1800000000000000000000000000000000007E
:105A280000000000FF000000FFFFFFFF00060E401F
:105A380000C20100C00000000008000000000000D3
:105A4800000000000000000001000100193A4000B9
:105A5800010100000100000001000100D9394000E7
:105A68000101000014000000010001009539400008
:105A78000101000010000000010001005139400040
:105A8800010100000F000000010001000D39400075
:105A9800010100001800000001000100C9384000A1
:105AA80001010000190000000100010085384000D4
:105AB80001010000130000000001040000000000C4
:105AC80000000000170000000001040000000000B2
