S0100000427261696E4D43552E7372656343
S214400000B8530020715340006D5340007D5540006A
S214400010815540008555400089554000000000004D
S214400020000000000000000000000000893B400087
S2144000306D53400000000000E93B40008D554000F5
S2144000406D5340006D5340006D5340006D5340006B
S214400050694540006D5340006D534000000000006D
S214400060714C4000B94C400000000000195240005E
S2144000702D52400000000000094D4000594D400000
S21440008000000000000000006D5340006D5340002B
S2144000906D5340006D5340006D5340006D5340001B
S2144000A06D5340006D53400000000000000000000B
S2144000B0000000006D5340006D5340006D534000FB
S2144000C06D5340006D5340006D53400010B5054CD5
S2144000D0237833B9044B13B10448AFF300800123AF
S2144000E0237010BD8C0A002000000000E06D400028
S2144000F008B5064B1BB106480649AFF300800648D4
S214400100036813B1054B03B1984708BD00000000D3
S214400110E06D4000900A0020E06D400000000000C6
S2144001200068C0F30320704708B5120202F47062FC
S21440013041F080611143024B9847002008BD00BF44
S2144001406900002008B50268044B090222F4706278
S21440015001F470611143984708BD00BF6900002054
S21440016008B5A1F10E03012B02D84FF0FF3008BDB1
S214400170120222F07F4222F0FF0242F0B442C9B29D
S2144001801143014B984708BD6D00002008B50A464C
S214400190024B014602489847002008BD290140000E
S2144001A0000A0E40032908B501D9112008BDC0F346
S2144001B00803002BF9D1A0F58002C2F34F220A4370
S2144001C0044B054807219847002814BF10200020FC
S2144001D008BD00BF61014000000A0E402DE9F04F07
S2144001E085B00446A0F58008324D334802938B46CE
S2144001F09146A84706210390304B2F48C8F34F2816
S214400200C4F3080A9847B9F1000F4AD02C4F544619
S2144002103D4608F5005AC4F500734FEA4A2A4B4556
S21440022034BF1E464E46019351462246DFF894C0E0
S2144002302348E047324638195946DFF888C0E04739
S214400240019B30199A1B06EB0A01384421441D4B8A
S21440025092B298471C4B1F1D07F5FE7153F8040FCA
S2144002605A1B8B4242F80A00F8D1029B12487BB1D7
S21440027003214246DFF854C0E04778B908F1010C44
S214400280B9EB06091FFA8CF8B3440AD00446C0E717
S214400290012142460D4B98470028EFD005B0BDE8F7
S2144002A0F08F03990448DFF814C0E047002005B0FB
S2144002B0BDE8F08F21014000000A0E404501400095
S2144002C0A80A00201D614000A40A002061014000E9
S2144002D021F4FF5121F01F0170B520F4FF5001F5C5
S2144002E0FF5420F01F001F3402B1106003B11C60A1
S2144002F00C4DA0F58004640A0D44A4B2C5F34F2506
S214400300AC420CD2084E01E0AC4208D22246074826
S2144003100921B0471034A4B20028F5D070BD0020A3
S21440032070BD00BFFF1FC0FF61014000000A0E40C5
S2144003302DE9B04FADF5D16D00AF07F1240318603D
S214400340002387F8773607F23C434FF40A72184684
S2144003500021764B984707F124031B6830221A7019
S2144003607348744B984707F23C4207F12403104603
S21440037019680122704B9847034687F8873697F8E6
S2144003808736002B01D00123D6E207F5866300228C
S2144003901A60043300221A60043300221A600433C1
S2144003A007F22C4300221A600023C7F8803607F273
S2144003B03C4307F5866207F22C44184611460C2249
S2144003C023465E4CA047034687F8873607F5866384
S2144003D01A685B4B9A4206D007F23C431846594B84
S2144003E098470123A8E2584BC7F870360023C7F851
S2144003F06C3600200621554B9847C7F86C06544883
S2144004005449554B98470346C7F8683607F23C436D
S214400410DA68D7F870361344D7F8700619460022C3
S21440042000234E4CA047C7F86C0607F50B734FF4F5
S2144004300072184600213D4B984707F12C034FF4B5
S214400440007218460021394B98470023C7F87C367F
S2144004500023C7F878363C4BC7F87C3616E0D7F80A
S2144004607C0603213E4B98470346C7F86836D7F8C4
S2144004706836002B04D0D7F878360133C7F878367C
S214400480D7F87C3603F58043C7F87C36D7F87C36F9
S214400490B3F5880FE3D30E200121324B98470C204A
S2144004A00121304B98470D2001212E4B984793E071
S2144004B007F23C4307F50B7207F22C4418461146E8
S2144004C04FF4007223461D4CA047034687F88736F4
S2144004D007F22C431B68002B16D0D7F87026D7F8A7
S2144004E080361A4407F22C431C6807F50B731046F7
S2144004F01946224600231C4CA0470346002B03D037
S214400500012387F8773675E007F22C431B68D7F847
S21440051080261344C7F8803607F23C43DB68A3F1D5
S2144005200C02D7F880369A4220D163E051624000F0
S21440053050140E40615340003D354000E1374000C6
S21440054055AA55AA493A4000004042008D01400055
S214400550000A0E400723015A6D000020D1024000D9
S214400560A5014000A5494000DD0140000C20AC4BF1
S2144005709847AC4B18464FF0000102460B4692187F
S21440058043EB0303121843EB01035C01FC61FD6976
S21440059045EAD265FD614FEA421CC7F818C0D7E964
S2144005A00645121943EB0503801841EB030143F25D
S2144005B0AF624FF00003121843EB01039A4C10460B
S2144005C0194643F2B0624FF00003A04702460B467E
S2144005D013461846954B984707F23C43DB68A3F111
S2144005E00C02D7F880369A4204D997F88736002B03
S2144005F03FF45EAF0D2000218D4B9847894B18463F
S2144006004FF0000102460B46921843EB03031218C4
S21440061043EB01035D017D61D7F814C04CEAD26C10
S214400620C7F814C054013C61D7E90445121943EB9E
S2144006300503801841EB030143F2AF624FF000031D
S214400640121843EB0103784C1046194643F2B06249
S2144006504FF00003A04702460B4613461846734B1E
S21440066098470D200121724B98476E4B18464FF025
S214400670000102460B46921843EB0303121843EB65
S21440068001035D01FD60D7F80CC04CEAD26CC7F898
S2144006900CC05401BC60D7E90245121943EB050370
S2144006A0801841EB030143F2AF624FF0000312188B
S2144006B043EB01035C4C1046194643F2B0624FF0E0
S2144006C00003A04702460B4613461846574B98472A
S2144006D04FF48103C7F87C3616E0D7F87C06022133
S2144006E0544B98470346C7F86836D7F86836002B09
S2144006F004D0D7F878360133C7F87836D7F87C3642
S21440070003F50053C7F87C36D7F87C264A4B9A4206
S214400710E3D90C200121464B98470E200021444B3C
S2144007209847404B18464FF0000102460B46921839
S21440073043EB0303121843EB01034FEA431B4BEA18
S214400740D26B4FEA421A12EB0A0243EB0B038018B5
S21440075041EB030143F2AF624FF00003121843EB44
S2144007600103314C1046194643F2B0624FF0000385
S214400770A04702460B46134618462C4B98470E2079
S21440078001212B4B9847274B18464FF00001024655
S2144007900B46921843EB0303121843EB01034FEA50
S2144007A0431949EAD2694FEA421812EB080243EB72
S2144007B00903801841EB030143F2AF624FF0000398
S2144007C0121843EB0103184C1046194643F2B06228
S2144007D04FF00003A04702460B4613461846134BFD
S2144007E098470023C7F86436144BD7F864261A6037
S2144007F00023C7F880364FF48103C7F8703607F2F7
S2144008003C43DA68D7F870361344D7F87006194672
S214400810002200230A4CA047C7F86C0674E000BFCD
S2144008204D4A4000000E2707D9554000850000205D
S214400830A5494000A5014000FF3F4200A80C00200B
S214400840D1024000D7F8803603F5840303F5804391
S21440085007F50B7211461A464FF4007308461146C8
S2144008601A46384B9847D7F87026D7F880361A4439
S21440087007F50B73104619464FF400720023324CAE
S214400880A0470346002B03D0012387F8773644E081
S214400890D7F8803603F50073C7F880360D202B4B0B
S2144008A098472B4B18464FF0000102460B469218CD
S2144008B043EB0303121843EB01035D017D60D7F859
S2144008C004C04CEAD26CC7F804C054013C60D7E977
S2144008D00045121943EB0503801841EB030143F230
S2144008E0AF624FF00003121843EB0103194C104659
S2144008F0194643F2B0624FF00003A04702460B464B
S21440090013461846144B984707F23C43DB68A3F15E
S2144009100C02D7F880369A4294D807F23C431846E1
S2144009200E4B9847034687F8873697F88736002B4E
S21440093001D0012300E00023184607F5D167BD46E5
S214400940BDE8B08F1D614000DD0140004D4A4000CB
S214400950000E2707D955400085000020493A400040
S2144009602DE9F04F6E4B6F4C6F4F85B098476F4BED
S214400970202098476E4B98470123184603A98DF8C8
S2144009800C308DF80D308DF80E30A0470DF10D016E
S2144009900220A0470DF10E010220A04700210C20A6
S2144009A0B8470D200021B8479DF80C30002B43D1A6
S2144009B09DF80D30002B3FD19DF80E30002B48D0CF
S2144009C05C4E0A250AE09DF80D805B48D8F1010888
S2144009D038BF4FF00008B047013D10D003A90120B2
S2144009E0A04702200DF10D01A0479DF80C30002BCA
S2144009F0E9D05148B047013D4FF00008EED1B8F17C
S214400A00000F19D004A9102001F8015DA0479DF8F9
S214400A100F30012B20D001210E20B84701210C2099
S214400A20B8470D200121B847444D0A244448B047F2
S214400A300E20A847013CF9D14FF481031A6882F38F
S214400A4008884049404A8B601368184705B0BDE89F
S214400A50F08F3E4B9847EFE73D4BDFF810A1DFF8AD
S214400A601091DFF8108198474FF4FA7408E0013C83
S214400A7049D03848DFF8F8B0B04799F800307BB135
S214400A800020D047012889F80000F0D10020C04758
S214400A900228ECD0013CF9D101254FF0FF34E8E7BD
S214400AA019464FF40C7201932B482C4CA047019BDF
S214400AB0294918462A4B98470B288BF80000AAD09D
S214400AC0002DA8D101210C20B84729460D20B84753
S214400AD029460E20B8472348234B134C98470028F6
S214400AE099D101210E20A04701210C20A047134D8B
S214400AF00D200121A04706241148B0470C20A847E6
S214400B00013CF9D198E7154B134821464FF40C7237
S214400B10984720461049124B984789F800007AE7D4
S214400B20694940001D4A4000A54940001D53400009
S214400B300D4E40008500002037140D004D4A400001
S214400B406E281A0000ED00E004804000B50C40001E
S214400B50410E4000D34E010000110020516240007B
S214400B60FD3440000467400031034000E917400070
S214400B70AC0C0020610E400080B5B6B000AF786087
S214400B800023C7F8D430274B1B681A4607F10803E2
S214400B90104619460A22244B9847C7F8D000D7F883
S214400BA0D0305A1CC7F8D02007F1D80213442C2264
S214400BB003F8D02CD7F8D03007F108021A44D7F8FB
S214400BC0D030C3F1C803104679681A46174B984789
S214400BD007F108031846164B9847C7F8D400D7F8CD
S214400BE0D430002B1AD0134B93F83C30002B0ED049
S214400BF0114B1B68002B0AD00F4B1B681A6807F175
S214400C00080310461946D7F8D4200C4B984707F1EE
S214400C1008031846D7F8D410094B9847D837BD462E
S214400C2080BD00BFC8100020894540007163400069
S214400C3011634000C0000020B00C0020414C400032
S214400C40450C4000F8B5154C236807460E463BB1A8
S214400C500021184605220B46114DA847012801D011
S214400C600120F8BD0F4D2A683244B2F5007F08D304
S214400C700546002120680C4C0A460B46A0472846ED
S214400C80F8BD2A6809480A4B104439463246984708
S214400C902B681E442E600025EBE700BFB40C0020F6
S214400CA09D3E4000B80E00208D3D4000B80C002010
S214400CB01D61400070B5084E084D032401211220E6
S214400CC0B0470748A84700211220B0470448A84725
S214400CD0013CF3D170BD00BFA5494000850000200F
S214400CE08AB2200010B5074A074B1268187892F867
S214400CF022301168054C527C003318BF0123A047B0
S214400D0010BD00BFC00E0020C60E0020591B40007C
S214400D10F8B5C500344C291804EB810101268A68D1
S214400D20530903F5001303F207735B0202F01F0238
S214400D30DB6B06FA02F2134001F1080110D1897903
S214400D40B14206D0284404EB80040423A373022057
S214400D50F8BD264A1278002AF4D0254A1360F1E7F7
S214400D608B79042B2AD0012B03D0032B18D118469D
S214400D70F8BD1E4B1B782BB11D4B1A68D20330D5DD
S214400D8000221A602918890063181A4F02269E739B
S214400D906750012700215F7483F822109B7BE4E7AD
S214400DA0054404EB85041449144A154B10700C6036
S214400DB09847A07B831E58425841F8BD0C4B8E7115
S214400DC01A6832B909490F4A0E705A601E600220EE
S214400DD0F8BD064A0C480D4B00211170984702207A
S214400DE0F8BD0220F8BD00BF90000020BE0E0020D7
S214400DF010E000E0801A0600C00E0020C60E00205C
S214400E00E50C4000C0E1E40025CA820085000020D1
S214400E1038B5084D084A2B68998941F609300904C7
S214400E209047044618B12868044B1230984720462D
S214400E3038BD00BFC00E0020FD1B4000311C4000E6
S214400E4010B50448044A054B0424FF2184731170EE
S214400E50984710BD90000020C60E0020211B400081
S214400E602DE9F04F054695B0002800F0EA800424AE
S214400E709E4B1878002800F0DE80204615B0BDE86E
S214400E80F08F45F208504FF4D571B047002840F037
S214400E90F7804FF000093B68DB7BDA0700F1FC8007
S214400EA045F203100021B047002800F0E080DFF84C
S214400EB074923D68DFF868A2C8473B68000CA8817A
S214400EC0DA7BD5073AD58A4B9847002800F0CF8082
S214400ED0DAF80030874D5A7D8748997C02F0070E35
S214400EE0C2F3C30255F82E5050F822004FF47A72DF
S214400EF002FB05F200FB02F289091A6040F0798194
S214400F00587E93F818C0D97E93F81AE01D7FDA7D94
S214400F10800040EA8C20490040EA9E1041EAD51104
S214400F20C0F30B0001F007010130023100FA01F175
S214400F3002F00F0201FA02F2920A5A6099896F4D46
S214400F40090443F20710B047002800F090803B6841
S214400F50DFF8CCA1DA7BD00730D5998941F237103B
S214400F600904A847002800F08280012500952B46FA
S214400F706348DFF8B8C100210822E047002876D051
S214400F80294604A85F4B9847002870D05E4B984788
S214400F9000286CD09DF8103003F00F03012B00F0B2
S214400FA02382C0F01C82022B40F019829DF812303A
S214400FB0DB093B6814BF302220221A744B4D534B3A
S214400FC02878984703281AD93B68DFF854A1DA7B7B
S214400FD0D10712D59989DFF824B1090441F23710B8
S214400FE0B047002844D041F206100221D8470028D6
S214400FF03ED0DAF8003004225A74454B9847454BA9
S214401000984758B13B68DFF818B1DA7BD20703D56A
S2144010101B7C102B00F2FA803D4B98473A68DFF86D
S2144010200081D37BD90700F1D980287800239373B9
S21440103000287FF422AF384B9847204615B0BDE8CD
S214401040F08F364B9847012804467FF411AF344F53
S214401050DFF8DC803B68294ED8731D749D81C047FD
S21440106029464FF48040B04700287FF40AAF1F4D12
S2144010703B68287803249C7300287FF4FEAEDAE7AA
S214401080284B9847451C3FF404AFC0F30B00B0F51F
S214401090D57FECD1A146FEE640F63505DFF888A0C0
S2144010A0DFF880B00EE0B9F1000F14BF51464FF4A0
S2144010B0FC1144F22950B04750B1D847002878DB9D
S2144010C0013D05D041F237100021B0470028EAD153
S2144010D03B680222DA734FF480400021B047002874
S2144010E0C5D041F26905DFF83C8025E0C60E0020F9
S2144010F0110E40005467400014674000FD1B40003E
S21440110033110800A91D4000111E4000491B400035
S214401110E50C4000551B4000D91B4000110D400017
S214401120C00E0020291C400000801F40551C400077
S214401130DD1B4000013D9AD0AF49DFF8FC9244F2F7
S2144011400150B047002892D0C0470028F2DA00F09D
S214401150C040B0F1804F04D13B68DA7B42F00802D1
S214401160DA7345F602300021DFF8D082B047002817
S2144011703FF47DAF3B68A14D01229A8141F20310B6
S2144011804FF48031C04700283FF471AF9C4B9847DE
S21440119000283FF46CAF2B689A7CC2F38302013A76
S2144011A0032A00F27C81DFE812F077017D012401FA
S2144011B0680041000FD53A68D37B43F00803D373E9
S2144011C0DB077FF56DAE45F602300021B0470028BC
S2144011D07FF466AE4BE73B68DB7BF1E741F21010ED
S2144011E04FF40071B04700283FF442AFD8F80020D3
S2144011F01BE7597E987EDA7E090441EA00210A43BD
S214401200C2F31502013252025A6097E64FF0010AC5
S214401210CDF800A053467B487B49DFF804C2402205
S214401220E04700283FF424AF04A85146774B984740
S21440123000283FF41DAF764B984700283FF418AF80
S214401240C84700063FF514AF9DF8203003F00F0363
S2144012500F2B3FF4E1AE9DF82D309DF82C2053EA3D
S21440126002227FF405AFC047DBF800301A6883F8E7
S21440127022A002FA0AF21A60CEE640221A745A7D7A
S21440128093F819E06349644893F818C09D7E02F0CD
S2144012900708C2F3C30251F8281050F822004FEA5C
S2144012A08E0242EA8C224FF47A7E0EFB01F142EA2D
S2144012B0951200FB01F0C2F30B0240F6FF718A4222
S2144012C0186011D0D97E1D7FD87D490041EAD511DE
S2144012D001F007010132023102FA01F100F00F027B
S2144012E001FA02F2920A5A60998943F207100904F9
S2144012F0B04700283FF4BBAE3B681B7C3F2B40F218
S214401300B180002100914548454D4FF400720123BD
S214401310A84700283FF4ABAEDFF82481322503A867
S214401320C047013DADB200283FF4A1AE002DF6D136
S2144013303B68039A5D7E187E997EAB0043EA802325
S21440134043EA9111C1F30B0140F6FF7302F002022B
S21440135099425FFA82FA4FF032050DF1100B73D0C6
S2144013605846C0470135ADB200283FF480AE7F2DC9
S214401370F6D92C4DDFF8CC802878C047032818D9FA
S2144013802878C0470428804670D02749274B08282D
S21440139018BF194643F20610B04700283FF468AE1F
S2144013A0C84702063FF564AE3B68214A83F8118081
S2144013B09047204B984710B1BAF1000F58D14FF0E4
S2144013C00A0841F210104FF40071B04708F1FF3898
S2144013D000286AD118F0FF083FF44AAEF1E7DAF881
S2144013E0003010221A74E9E5DAF800301A221A742E
S2144013F0E4E530221A7442E700801F40C00E002009
S214401400110E40000611080001FFFF80A91D400094
S214401410111E4000546740007067400008110800E5
S214401420551C4000C60E00200002B7010000B70160
S214401430E50C4000551B4000291C4000FD1B4000A9
S214401440051D4000491B40005846C0470135ADB217
S21440145000283FF40CAE362DF6D1049A3B6852086D
S2144014605A607DE7124B134D9847A8E7124991E71B
S21440147043F206101149B04700283FF4F9ADC8477B
S21440148003063FF5F5AD3B680D4A1A60012283F826
S2144014902220074B984792E714221A74EFE612224E
S2144014A01A74ECE622221A74E9E63A68BDE500BFF3
S2144014B0E50C4000C60E00200001B7010001B9034C
S2144014C00075190308B508B1002008BD084B9847B9
S2144014D00028F9D1074B1B781BB1074B1B68D87BFC
S2144014E008BD064B9847044B1B68D87B08BD00BF19
S2144014F0110D4000C60E0020C00E0020D91B400033
S21440150008B508B1002008BD084B98470028F9D117
S214401510074B1B781BB1074B1B68586808BD064B2A
S2144015209847044B1B68586808BD00BF110D400023
S214401530C60E0020C00E0020D91B40000020704779
S2144015402DE9F04F8B4683B0924628B14FF0040900
S214401550484603B0BDE8F08F264B984781460028A2
S214401560F6D1254C254D264E264F04E0B847C205F9
S21440157014D4013C09D02B68DFF88880998941F261
S2144015800D100904B0470028F0D11F4B1B783BB321
S2144015904FF00509484603B0BDE8F08F2B681B485E
S2144015A0DB7B1B4ABAF1010F98BF10461B0701D4DC
S2144015B04FEA4B2B0123009359464FF40072534693
S2144015C0144CA0470028E0D0C047134B0340002BE4
S2144015D0DBD1124A124BA2F800A0A3F800A0B7E74E
S2144015E00020104B98474FF00509484603B0BDE829
S2144015F0F08F00BF110D4000410D0300C00E0020CB
S214401600FD1B4000291C4000C60E00201211100091
S21440161011110800551C4000000058E4C40E00207C
S214401620BC0E0020D91B400010B5074B0C4698470F
S214401630034618B9054A1380052010BD034B1A8887
S214401640141B1C80002010BDA91D4000C40E0020A5
S21440165010B5124B0446984708B9052010BD104BEC
S2144016609CB91B887BB90F4B1B88012B05D043F2D6
S2144016700C1000210C4CA04750B10C4B1B7813B9F2
S21440168000200B4B9847002010BD00221A80EAE746
S214401690014643F20C10A047EFE700BF111E400082
S2144016A0C40E0020BC0E0020FD1B4000C60E0020CD
S2144016B0D91B400070B5154684B018B104242046A6
S2144016C004B070BD0391184B984703990446002810
S2144016D0F5D1164B164A1B681648DB7B164E012D75
S2144016E088BF10461B074FF0010358BF49020093BE
S2144016F04FF400722B46B04730B9104B1B7873B18D
S2144017000524204604B070BD0D4B98470D4B034052
S214401710002BF2D10C4A0D4B15801D80CFE70020E0
S2144017200B4B9847ECE700BF110D4000C00E002061
S2144017301991100018910800551C4000C60E002054
S214401740291C4000000058E4C40E0020BC0E0020B7
S214401750D91B400010B5074B0C469847034618B9AE
S214401760054A1380052010BD034B1A88141B1C80A5
S214401770002010BDB51E4000C40E002010B5144B0E
S2144017800446984708B9052010BD124B94B91B88EB
S214401790E3B9114B1B88012B12D043F20C100021E9
S2144017A00E4B984760B90E4B1B78002BEBD10D4B78
S2144017B09847E8E700221A80074B1B88012BECD19C
S2144017C0074B1B7813B90020064B9847002010BDE6
S2144017D0211F4000C40E0020BC0E0020FD1B400010
S2144017E0C60E0020D91B400010B50F4B0446984744
S2144017F001280DD007D3022803D10C4B00221A55DE
S21440180010BD012010BD094B1B5D1BB1022010BD51
S214401810032010BD2046064B984710F0030F0CBF20
S2144018200220002010BD00BF610E4000C80E002000
S214401830C514400008B50020014B984708BD00BFBE
S214401840E917400008B50120014B984708BD00BF86
S214401850E917400038B5054B0D460446984740000A
S21440186001382860024B2046984738BD0115400095
S214401870E917400008B50146014B0020984708BDCF
S2144018805518400008B50146014B0120984708BD51
S21440189055184000014B187001207047C80E0020B4
S2144018A0014B587001207047C80E002008B5002034
S2144018B0014B984708BD00BF3D15400008B50120C4
S2144018C0014B984708BD00BF3D15400001207047BA
S2144018D00120704710B50B4B14460122984720B1A3
S2144018E002280CBF0220012010BD20460121064BD5
S2144018F0984708B1012010BD044B9847003018BFE8
S214401900012010BD411540002916400051164000E8
S21440191008B50A46024B01460020984708BD00BF5E
S214401920D518400008B50A46024B014601209847A4
S21440193008BD00BFD518400010B50B4B1446012219
S214401940984720B102280CBF0220012010BD204637
S2144019500121064B984708B1012010BD044B98471B
S214401960003018BF012010BDB51640005517400086
S2144019707D17400008B50A46024B014600209847AE
S21440198008BD00BF3919400008B50A46024B01465B
S2144019900120984708BD00BF39194000012808B506
S2144019A001D9012008BD4001014B1B58984708BD8E
S2144019B0B0674000012808B501D9012008BD034B97
S2144019C003EB401308465B68984708BDB067400085
S2144019D001288CBF00200120704700BF012808B5B1
S2144019E001D9012008BD034B03EB4010C36898475C
S2144019F008BD00BFB0674000012808B501D90120E6
S214401A0008BD044B03EB401308465B6911469847F4
S214401A1008BD00BFB0674000012808B501D90120C5
S214401A2008BD044B03EB401308469B691146984794
S214401A3008BD00BFB06740002DE9F00101F03F034C
S214401A40CF0543EA000003D50E0530D540F4845058
S214401A504FF080434C0448BF40F400601A611D4676
S214401A6001F48054586104E013F41F0F2CD1DA07B8
S214401A7024D44FF080422B6C002CF5D113F41B0F6E
S214401A80F5D0D2F804C09768D668D569516D4FF046
S214401A9080080523C2F80080C2F804C09760D6606C
S214401AA0D561516513602046BDE8F00170478D044E
S214401AB04CBF40F4865040F48250C9E78B0415D49E
S214401AC00120BDE8F0017047802057689668D568C9
S214401AD0D469516D10600523002057609660D5602C
S214401AE0D46151651360BDE8F00170474FF0804304
S214401AF019461B6C4FF0FF3003F03003202B4FF09D
S214401B008042DDD001380B6CF6D14FF0800C576820
S214401B109668D568D469516DC2F800C00523DCE7E5
S214401B2010B5084B122098474FF08043722211247C
S214401B304FF4E06005219A60DA615C655860196090
S214401B4010BD00BF1D53400000280CBF04200020DD
S214401B50704700BF012070473BB34FF080434900B9
S214401B60586D40F4807058651A4B994227D8013317
S214401B701846B3FBF1F301FB03F1401A08BB0BBB5D
S214401B8019464FF08043042A586820F0FF005860FA
S214401B90586841EA0001596017D0082A4FF0804340
S214401BA00CBFC0220022DA6070474FF080434900E5
S214401BB0586D20F480705865064B9942D7D900215D
S214401BC0DFE70133013BD9B2DBE74FF080438022A9
S214401BD0DA607047FF0D2707704700BF4FF080431D
S214401BE000205A684FF4106122F460525A6018611F
S214401BF01A465961136CDB07FCD5704770B54FF039
S214401C00804300245A68074D22F460525A605E684A
S214401C1026F400460A465E6001469C612046A84778
S214401C2070BD00BF391A40004FF08043186A7047B5
S214401C3030B400F110054FF08044236AC370190E8B
S214401C401A0C1B0A0170427083700430A842F4D10B
S214401C5030BC7047F8B50E469DF818504FF080419E
S214401C60044648684DB340F4004048604FF080401A
S214401C709707416841F4C0514160416814BF41F440
S214401C80005121F4005114F4004F41600CBF4FF452
S214401C90A0204FF48030E5034FF0804121D443EA42
S214401CA002458D61A1030CD4670320D425030AD4D2
S214401CB0E10248BF40F4002005E020F400404860C0
S214401CC0D4E740F420100B49DFF834E00A4F0A808E
S214401CD00A4D3B80214632460024CEF80040A847B5
S214401CE0F8BDC2F3080540F400108D61EBE740F400
S214401CF08010E8E7CC0E0020CE0E0020391A4000B7
S214401D00D00E0020F0B44FF0804401E0920717D484
S214401D10226C214B13404FF08041002BF6D04F6889
S214401D208E68CD68CC694A6D8020052308604F6078
S214401D308E60CD60CC614A650B600020F0BC704779
S214401D40164A174C174D136826882D880C6B04606E
S214401D50043306FB05F08342136002D219E01301F8
S214401D6017D40A6C0C4B13404FF08044002BF6D02F
S214401D706768A668E568E169626D80200523206093
S214401D806760A660E560E161626523600020F0BCA4
S214401D9070470120F0BC7047000060C0D00E0020A5
S214401DA0CC0E0020CE0E002030B4174B1B88840784
S214401DB003FB01F101D19A071ED04FF080435A68C9
S214401DC042F400525A604FF080430024C3F80001AA
S214401DD05B680E4A9B044FF0804354BF8D080D4607
S214401DE00120C3F80451C3F81441C3F82001136816
S214401DF01944116030BC70474FF080435A6822F453
S214401E0000525A60DFE700BFCC0E0020D00E002004
S214401E10F0B44FF0804001E052041BD4026C214BDA
S214401E2013404FF08041002BF6D040F20223C1F819
S214401E3020314F688E68CD68CC694A6D8020052376
S214401E4008604F608E60CD60CC614A650B600020B4
S214401E50F0BC7047144A1548154B128800881B681A
S214401E6000FB02F29A4202D919E0130117D40A6C19
S214401E700C4B13404FF08044002BF6D06768A668A2
S214401E80E568E169626D8020052320606760A66092
S214401E90E560E161626523600020F0BC7047012088
S214401EA0F0BC7047000060C0CE0E0020CC0E002074
S214401EB0D00E002030B4184B1B88840703FB01F17A
S214401EC001D19A0720D04FF080435A6842F400521E
S214401ED05A604FF080430024C3F808015B680F4AFD
S214401EE09B044FF0804354BF8D080D464FF48070DE
S214401EF0C3F80C51C3F81C41C3F8200113681944B9
S214401F001160012030BC70474FF080435A6822F47D
S214401F1000525A60DDE700BFCC0E0020D00E0020F5
S214401F20F0B44FF0804001E012041DD4026C224B06
S214401F3013404FF08041002BF6D0D1F804C08F6894
S214401F40CE68CD694C6D8020052240F202230860A1
S214401F50C1F804C08F60CE60CD614C650A60C1F8A0
S214401F6020310020F0BC7047144A1548154B1288A3
S214401F7000881B6800FB02F29A4202D919E09306D9
S214401F8017D40A6C0C4B13404FF08044002BF6D00D
S214401F906768A668E568E169626D80200523206071
S214401FA06760A660E560E161626523600020F0BC82
S214401FB070470120F0BC7047000060C0CE0E002085
S214401FC0CC0E0020D00E0020436819B923F0010340
S214401FD04360704743F001034360704730B4846801
S214401FE08568AC4203D084688568A542FBD161B160
S214401FF004F47C10050D05EB8505C0F3034000EBAB
S2144020004500650248BF0C3008604AB104F4FE4102
S214402010080B00EB8000C1F3032101EB4001116087
S21440202043B1C4F3021202EB820204F00F0404EB45
S21440203042021A6030BC7047F0B4C468C568049E5B
S214402040AC4203D0C468C568A542FBD1A1B104F434
S2144020507F452F0BC4F3021007EB870CC5F303250F
S21440206004F00F0700EB800007EB400005EB4C0543
S214402070642707FB005008604AB104F4F810010DCD
S2144020808D00C0F30340294400EB410111604BB181
S21440209004F07C52110F01EB8101C2F3036202EBA4
S2144020A041021A6016B1C4F342543460F0BC704723
S2144020B0C16070474069704743699B0746BFC1612E
S2144020C000200120704700BF81607047C1607047A4
S2144020D043699B0743BFC1F30801C161002001204B
S2144020E0704700BF4369DB07FCD58369C3F3080329
S2144020F00B600020704700BF38B5002104460B4BEC
S2144021000B489847022C07D820460A4DA847032874
S21440211001D12046A84708B1012038BD2046064BCD
S214402120984700280CBF0020042038BDC91F400037
S21440213060140E409D194000DD19400008B5044B60
S214402140984718B102280CBF0320012008BD00BFE5
S2144021509D1940002DE9F04F184C83B00E461546A9
S21440216098468146A047044618B9012003B0BDE80A
S214402170F08F134B484601A99847019B18FB04F281
S21440218003FB04432A449A4203D9042003B0BDE823
S214402190F08FB8F1000F0FD0DFF828B04FEA442A8E
S2144021A00027294632464846D847013725445644F4
S2144021B00028DAD14745F4D30020D7E7D1194000AC
S2144021C0B5194000F91940002DE9F04F184C83B07E
S2144021D00E46154698468146A047044618B9012043
S2144021E003B0BDE8F08F134B484601A99847019BC2
S2144021F018FB04F203FB04432A449A4203D9042002
S21440220003B0BDE8F08FB8F1000F0FD0DFF828B06C
S2144022104FEA442A0027294632464846D8470137DF
S214402220254456440028DAD14745F4D30020D7E762
S214402230D1194000B5194000191A400010B514468F
S21440224082B0032929D8DFE801F01C1307020123D6
S2144022501360002002B010BD114B9847431EDBB2FE
S214402260012B16D9042814D0082812D00120F1E7F3
S21440227001A90C4B9847019B00200133236002B014
S21440228010BD094B9847002814BF0320002002B019
S21440229010BD0020207002B010BD0420DAE700BF59
S2144022A0D1194000B51940009D19400030B5124C78
S2144022B0124D8BB0204603A904AA05ABA84709AB2C
S2144022C02046009306A907AA08AB0D4CA047089DD8
S2144022D0079C05980399049A069B2D0445EA4454A6
S2144022E0204340EAC12141EA4210A3F2BC7340EACF
S2144022F043600BB030BD00BF60140E40DD1F400091
S2144023003920400070B4194A0026334652F8084C2B
S21440231074B10568AC4210D00133032B02F10C02B5
S214402320F4D13EB9022914BF1220002070BC704779
S2144023300136F1E7002070BC704752F8045C8468B0
S214402340A542E9D11588C488A542E5D109B1102037
S214402350ECE7074A03EB430302EB830370BC5B895D
S214402360B3F5807F14BF002010207047E00E002099
S214402370D80E00202DE9F843C56A8D4204460E4625
S21440238002D0037973B916B90020BDE8F8836078A7
S214402390174D04F1300132460123A84720BBE662C0
S2144023A0BDE8F88300F1300841464078DFF84490B5
S2144023B02A460123C847B8B9E369226A20711A44FD
S2144023C09542E0D2E778012F01D8DCE7E3691D4467
S2144023D0013F2A46607841460123FFB2C847012F95
S2144023E0F4D1002ED0D0D2E70120BDE8F88300BF5C
S2144023F055214000C92140002DE9F84F0021314BBE
S21440240005469847034650B92B78032B0AD000213F
S2144024102D4B68780A469847031C18BF0123184678
S214402420BDE8F88F6B79002BF1D005F13001E862FA
S2144024300B4605F50C7203F8010B93424FF000046F
S214402440F9D12A69EB6885F81822C2F3072B4FEAC0
S214402450124A4FEA134C4FEA136E52204FEA126963
S214402460C3F307286122AA2685F819B285F81AA26E
S2144024704FF0410B4FF0720A552785F81C3285F80D
S2144024802F6285F8300085F8310085F8322085F8CF
S214402490172285F81B9285F81D8285F81EC285F89E
S2144024A01FE285F82E7285F833B085F816B285F8A7
S2144024B014A285F815A268786A69044E0123B047CD
S2144024C06C71A4E7752340003D224000C9214000BE
S2144024D008B508B103780BB9092008BDC3888B42FC
S2144024E0FAD1044B4078984710F0010F0CBF0020FB
S2144024F0032008BD3D21400070B504460A4640789A
S2144025001D4D04F130010123A84708B1032070BDDA
S21440251094F82F1294F82E22184B42EA012212B257
S2144025209A4201D0022070BD94F8682094F8696001
S21440253094F8665094F86710114B120442EA06620B
S2144025402A4342EA012222F07F429A42EBD094F894
S214402550842094F8855094F8821094F883001204EE
S21440256042EA05620A4342EA002020F07F40C01A51
S21440257018BF012070BD00BF5521400055AAFFFF7F
S214402580464154002DE9F04103681C78303C092C44
S214402590154602D85A783A2A15D0BD4B1C680C60AE
S2144025A074B12378B3B1BB4B60789847C30711D456
S2144025B005B310F0040F0CBF00200A20BDE8F081E0
S2144025C00C20BDE8F08102330360002CE5D00B20E0
S2144025D0BDE8F081002020706070AF4B9847C70779
S2144025E002D50320BDE8F0813DB1460705D50A2057
S2144025F0BDE8F0812846BDE8F08120460021A74D81
S214402600A847012807D00026032800F0BF80C0B1A5
S2144026100D20BDE8F08194F8F231002BF8D094F804
S214402620F82194F8F91194F8F63194F8F761120409
S21440263042EA0162134343EA062631462046A8474B
S214402640E2E794F83C2094F83B3043EA0223B3F5A3
S214402650007FDDD194F8471094F8463053EA0121C4
S2144026600DD194F8562094F8570094F8543094F8C6
S2144026705510120442EA0062134343EA012194F8DB
S2144026804000E161431E012BE070C1D894F83D3014
S214402690A370002BBCD05A1E1A42B9D194F84250AF
S2144026A094F8412042EA052215072281B0D194F8D9
S2144026B0447094F8435055EA07250FD194F852C019
S2144026C094F8538094F8505094F851704FEA0C4C5C
S2144026D04CEA086C4CEA050545EA072594F83FC0E5
S2144026E094F83E7057EA0C2792D000FB01FC07EBAB
S2144026F01210604485428BD32D1AB5FBF3F3002BA2
S21440270086D040F6F575AB4240F2C0804FF6F57580
S214402710AB4200F2A0800225023330443744A36126
S214402720A0622762002A3FF473AF6744022D6762B7
S21440273000F08F8003EB430203F0010303EB5203E8
S214402740012503F2FF13B1EB532FFFF461AF4FF0B7
S214402750FF320023032D2261E3601AD0504E5149C8
S214402760308825700130002280B23080E0801346E9
S214402770E262227115460846CA58944208BF1D5068
S2144027800C33242BF8D10020BDE8F0810120BDE8B1
S214402790F08194F8611094F86020637142EA012257
S2144027A0324462616078404E04F130010123B04704
S2144027B00028D3D194F82F1294F82E223B4B42EAAD
S2144027C0012212B29A42C9D194F8320094F833608A
S2144027D094F8302094F83110354B000440EA0660F7
S2144027E0024342EA01229A42B8D194F8160294F87B
S2144027F0176294F8142294F81512000403F1FF535C
S21440280040EA066003F500530243203342EA0122C1
S2144028109A42A3D194F81E7294F81A6294F81F82D2
S21440282094F81BC294F81C2294F8183294F81D02AF
S21440283094F819123F04360447EA086746EA0C66DD
S2144028403A43334342EA002243EA0123E2602361EB
S21440285084E75B0075E7023330443744A361A062E7
S2144028602762002A7FF4D4AE94F85E5094F85F70E6
S21440287094F85C2094F85D002D0445EA07652A43E9
S21440288042EA00229B00626203255AE7012543E79D
S214402890FC0E00203D214000F9204000F924400075
S2144028A0D40E0020D80E00205521400055AAFFFF28
S2144028B0525261412DE9F0410378022B04460D4601
S2144028C048D0032B29D0012B03D04FF0FF30BDE872
S2144028D0F081016A294F05EB550601EB5621B847B2
S2144028E00028F2D1C6F30803216A2344013601EBDF
S2144028F05621204693F83080B8470028E5D1C6F3E5
S2144029000806344494F8303048EA0320EB074CBFBE
S2144029100009C0F30B00BDE8F081016A174B01EBDC
S214402920D51198470028D0D1AD0005F4FE7505F1C5
S214402930300323442C44D87899785A7894F8303029
S214402940000640EA014040EA0220184320F070406A
S214402950BDE8F081016A094B01EB15219847002834
S214402960B3D16D0005F4FF7563191C4693F83030FB
S21440297094F8310043EA0020BDE8F081752340001A
S214402980F8B583680446012B0D46E18003D0006805
S2144029908269934201D30220F8BDB3B90378032B72
S2144029A010D00023E3600389AB42F4D9436A03EBBB
S2144029B01513236105F00F0500EB451030306061BC
S2144029C00020F8BD436A002BEBD086783601B5422E
S2144029D019D3012BDFD9AD1B9A42ADB2DBD9114FCB
S2144029E008E00128D7D9206882699A42D3D9AE42F6
S2144029F009D80D461946B847A91B421C034689B25A
S214402A00EFD10120F8BDE3608269023B023A93426F
S214402A103BBF8178826A002301FB032303EB151337
S214402A202361C7E7B52840002DE9F0410378022B23
S214402A3004460D4616465BD0032B39D0012B04D0F6
S214402A40022001232371BDE8F081016ADFF8D480BB
S214402A5005EB550701EB5721C0470028F1D1C7F3D6
S214402A60080315F001052344F2B206D093F830105F
S214402A7001F00F0141EA0212D2B283F83020216AF7
S214402A800137012301EB572123712046C047002818
S214402A90D7D1C7F30807002D3FD12744C6F30326F6
S214402AA097F8303023F00F031E4387F83060C8E7AE
S214402AB0016A1C4B01EBD51198470028C1D1AD00E7
S214402AC005F4FE7505F1300323442544DA781206F2
S214402AD002F070421643C6F30727310C320E85F8D3
S214402AE030605F709970DA7001232371BDE8F08121
S214402AF0016A0C4B01EB152198470028A1D16D00C7
S214402B0005F4FF756219C6F3072382F831300123B6
S214402B1082F830602371BDE8F081C6F3071627447B
S214402B20C3E700BF752340002DE9F04105468846BF
S214402B3001BBC66883695EB39E4228BF01262E4FFE
S214402B4034460FE0012E25D9022B10D90224284600
S214402B502146B84738B3411C21D0012807D0A642A9
S214402B6018D0AB6901349C42ECD2012CEFD801203E
S214402B70BDE8F0810129FAD983699942F7D21E4B04
S214402B8098470128F3D9AB698342F1D84646D6E741
S214402B900126D4E70020BDE8F0810128E7D14FF0B8
S214402BA0FF30BDE8F081AB69A342E0D92846214614
S214402BB06FF07042114EB0470028EED1B8F1000FCA
S214402BC00BD0B8F1010FD2D9AB699845CFD2414668
S214402BD028462246B0470028DFD12B69EC605A1CB5
S214402BE006D0013B01222B616A712046BDE8F08188
S214402BF02046BDE8F08100BFB5284000292A4000A5
S214402C002DE9F84FC5880135ADB204460E4615B9D4
S214402C100420BDE8F88F0369002BF9D015F00F07A4
S214402C2008D0006800EB471330336361E58000202E
S214402C30BDE8F88FC16801330361006861B18278EE
S214402C40013A12EA1512EDD1012902D98269914260
S214402C5006D30220BDE8F88F0289AA42D8D9E1E718
S214402C60344B984701288046F3D9B0F1FF3F1CD03B
S214402C702068826942450ED9A8F10206C4F80C8045
S214402C808269023A96423BBF8178826A002601FBFF
S214402C9006262661C6E7002EBAD0E168264B98473E
S214402CA0804628B90720BDE8F88F0120BDE8F88F98
S214402CB00128CED0B0F1FF3FF7D02068DFF87C90F7
S214402CC00021C8470028F0D12268014602F13003AF
S214402CD002F50C7203F8011B9342FBD123689A69F4
S214402CE0A8F10206023A96423BBF9A6A99780022B9
S214402CF001FB0622DA624FF0000A4FF0010B0BE0B0
S214402D0083F804B02068C8470AF1010A0028CCD1ED
S214402D102368DA6A0132DA62236898785FFA8AF2C0
S214402D2090424FF00001EBD8D96A8A1ADA622068DE
S214402D30A4E700BFB5284000292B4000752340007B
S214402D402DE9F04F4FF0FF0885B0524FDFF84C9119
S214402D50DFF84CA10546464608E00F293ED0FF2640
S214402D60284600214C4B9847002834D128682969CA
S214402D70B84780BB6C692278002A78D0E37AE52A87
S214402D8003F03F01EBD01B07E7D40F2926D08EB9BE
S214402D90944604F10A062246034601E012F801CFA3
S214402DA0D90141EA53035CFA83F3B242DBB2F5D170
S214402DB0434510D04FF6FF72AB692A84DA7AD207C1
S214402DC0CDD404F10B0614F8011B13F8012B9142E5
S214402DD0C5D1B442F7D105B0BDE8F08FEB69002B02
S214402DE0BED051063FD5E98894F80D80298402F07C
S214402DF0BF06617B4145B2D12278DFF8A8B022F009
S214402E004002013A02EB420C02EB8C0C4FF6FF7884
S214402E10012203E0404535D1CB452CD01BF8010FAD
S214402E2004EB000E205C9EF801E040EA0E20002AEB
S214402E30F0D00CF101028DE80A100392D047DDF87D
S214402E4008C0BCF1FE0F02469DE80A001AD833F8C7
S214402E501C000292D047029A82429DE80A0011D195
S214402E60DDF80CC0D8E7B2427FF479AFC1E7042062
S214402E7005B0BDE8F08F2078400606D52AB133F875
S214402E801C3013B18846FF266AE7013EF6B28846F4
S214402E9066E700BF75234000012C4000C068400034
S214402EA0E13A4000B36840002DE9F04FD0F818A052
S214402EB0C56989B00AF1FF360446324605AB12F8BA
S214402EC0011F03F8011B08A98B42F8D19DF81F305B
S214402ED00193DA0756D4B14F019B9B0700F1C2809D
S214402EE04FF0010920460021B847002847D18246C6
S214402EF0AB4EDFF8B482054605E01D46C0470346A4
S214402F00002840F0CE8021692068B047034605F18E
S214402F10010C20460121002B40F0C38062691278E4
S214402F20E52A01D0002AE8D10DB9B4F806A01FFA68
S214402F308CF54D45E2D1B9F1010F40F0B6802068DE
S214402F402169B047D8B96569014605F120022B468C
S214402F5003F8011B9342FBD1A26905F10B002B46F7
S214402F6012F8011B03F8011B8342F9D1A369DB7AEF
S214402F7003F018032B73236801221A71002009B04E
S214402F80BDE8F08F0023854FDFF820828AF80B30AB
S214402F904FF00109E3610DF11F0B324605AB13F804
S214402FA0011B02F8011F5B45F9D1B9F1050F57D94E
S214402FB0288829464A4600E01846D30343EA520288
S214402FC031F8023F10FA82F292B2002BF4D1072376
S214402FD002F00F0000F13001392988BF00F13701B7
S214402FE0013B03A81844C2F30F124170002AEFD1E8
S214402FF008A919447E2001F8140C002B4FD09AF8EB
S2144030000010202914D0514603E011F8010F202863
S2144030100ED001329A42F8D1072B0BD808A9194492
S214403020013311F8141C0AF802100132072A07D897
S214403030072BF3D920210AF802100132072AF7D9C4
S21440304020460021B84710BB2046C047F8B909F1D2
S21440305001091FFA89F9B9F1640F9ED107208EE75E
S2144030604A46B4E72B88002B3FF43AAF002301339F
S2144030709BB235F81320002AF9D14A4A193382FB0D
S2144030800319DB17C3EBA9091FFA89F92AE70428B5
S2144030907FF475AF019B8AF80B30E5611CE71A4652
S2144030A0C6E7184609B0BDE8F08F51462046B847F7
S2144030B003460028F5D1A269834602F10B0012F8B8
S2144030C0013B4FEACB1141EA5B0B53FA8BFB824242
S2144030D05FFA8BFBF3D109F1FF391FFA89F9DFF864
S2144030E0D080CDF800B0CB4620682169B047034673
S2144030F00028D6D15FFA8BFA6569009BD4F81C90FD
S2144031006B730AF1FF3202EB42010F27034602EBD4
S2144031108101EF722873A876E87602464FF6FF776D
S214403120FF2010E039F8113005F80E300132AE4479
S2144031304FEA132C002B08BF3B460D2A01F1010134
S2144031408EF801C00CD0BB4218F802E0EAD105EB7D
S2144031500E0C01320D2A05F80E008CF80100F2D153
S2144031604FF6FF72934202D039F811300BB94AF04D
S214403170400A85F800A023680B4A012119712046B1
S21440318000219047034600288BD10BF1FF3B1FFAE6
S2144031908BFBBBF1000FA7D1D1E600BF81294000D1
S2144031A0752340004FECC44E012C4000412D40009A
S2144031B0B46840002DE9F04104460D46A369164F19
S2144031C0DFF858809D4220D2012D0BD92046294653
S2144031D0B8470646C8B1012804D0013018D0A369C4
S2144031E09D4202D30220BDE8F081002229462046B7
S2144031F0C047012268B92369591C02D01344236191
S2144032006271A36935469D42DED30020BDE8F08159
S2144032100120BDE8F08100BFB5284000292A4000C3
S2144032202DE9F04F0B782F2B83B08946064600F0E9
S21440323033815C2B00F030810024B46099F80000A4
S2144032401F2840F23281A74D01E019F8010F2F28C0
S214403250FBD05C28F9D01F28F76940F2EC802F2875
S2144032602DD05C282BD00121A7F1020BCA460124A1
S214403270A84700B37F2809D822281CD09A4A01E0E4
S214403280984218D012F8013F002BF9D12BF8020FC4
S2144032901AF8010F1F2804F1010340F2CE802F28B0
S2144032A00FD05C280DD0B3F5807F04D001211C469A
S2144032B0A8470028DED1062003B0BDE8F08F0024E2
S2144032C0012399444FF0000B002CF4D007EB440048
S2144032D030F8022D202A01D02E2A02D1013CF7D107
S2144032E0E9E7002327F81430B36907EB440003F1FD
S2144032F00B01202203F8012B8B42FBD1BB1E4FF063
S214403300000A01E00AF1010A33F8022F202AF9D018
S2144033102E2AF7D0BAF1000F01D04BF0030B03462C
S21440332033F8021D2E2901D0013CF9D14FF0000C94
S2144033301046E04608230AF1010A78B320281FD039
S2144033402E281BD09C4520D254457AD07F2800F2A8
S21440335083802B2800F09080644A02E0884200F088
S2144033608B8012F8011F0029F8D1A0F141011929DC
S21440337000F2A68048F00208C0B280E0544560D013
S2144033804BF0030B37F81A00D5E70B2B00F0A6805E
S214403390544558D0A2454BF0030B54D9B169087830
S2144033A0E52875D0082B04BF4FEA88025FFA82F8FA
S2144033B008F00C030C2B68D008F00300032864D0F8
S2144033C01BF0020F09D108F00302012A08BF4BF098
S2144033D0100B042B08BF4BF0080B81F80BB030469F
S2144033E00021434B9847D0B9424B30469847B36983
S2144033F0DB7AB0B959073FF55FAF7369DA7AD20620
S21440340068D55C7D1A7DD87E997E42EA042241EAE0
S214403410002343EA0243B36099F8000017E7B36914
S214403420DB7A04287FF448AF13F0040F08BF05206A
S21440343003B0BDE8F08F0024012399444FF0040BFD
S21440344042E70B2B4AD04FEA88025FFA82F8A24640
S2144034500B234FF0080C95E700218DE80810A8478D
S2144034609DE8081048B3244A10444BF0020B10F86D
S214403470800C00287FF46DAF4BF0030B5F20B169E2
S21440348001F80C000CF1010C7CE74BF0020B97E7BF
S21440349005200870B16985E709F101090024B46088
S2144034A099F800001F283FF6CEAE30462146104B16
S2144034B09847746103B0BDE8F08F4BF0020BDBE732
S2144034C0A0F16101192997BF2038C0B2C0B248F0B8
S2144034D00108D4E7052003B0BDE8F08F4BF0030B9E
S2144034E00B235BE7953A4000A0684000AC6840007C
S2144034F081294000412D400020684000F0B410B1C2
S2144035000B20F0BC70470B4D2B685BB10A4C07464E
S21440351026462258934208BF87510C302428F8D1BB
S21440352000221A7009B100230B7029600020F0BCFD
S214403530704700BFFC0E0020D80E00202DE9F04F4B
S214403540ADF50F7D002303601646019102F01E0282
S2144035509A4B044605A901A8984702AB0EAA0B93BE
S2144035600C9206F01F0730B116F01C0F1AD10DF55D
S2144035700F7DBDE8F08F0199914B05A898470A9DAD
S2144035800028F1D1002D00F0AB8037F001080CBFC9
S2144035900021012105A88B4B984716F01C0F1BD025
S2144035A0002850D00428E2D1874B1A682AB1DA683E
S2144035B01AB19B691220002BD9D105A8834B984796
S2144035C047F008070A9D0028D1D1380700F18A80C5
S2144035D0059E27F0010811E00028C8D1EB7AD906ED
S2144035E03ED4B20701D5DB0735D406F00803DBB27C
S2144035F0059E1BB147F0200727F00108F36A07989D
S214403600BDF81AC0724AE3612562002352F8081CCE
S214403610B1422AD00133032B02F10C02F6D16A4A9A
S2144036201368002B00F09A80D368002B00F095803A
S2144036309369002B00F0AC800023022063620DF5F6
S2144036400F7DBDE8F08FEB7A13F0110F03D17607AC
S214403650BBD508208BE707200DF50F7DBDE8F08F22
S21440366004200DF50F7DBDE8F08F52F8041C814212
S214403670D0D111886145CDD15900534AC81802EBC4
S21440368080004089B8F1000F61D1013080B2194402
S21440369002EB8102013350816362002B52D0A77146
S2144036A0687DA97E2A7DEB7E42EA002241EA03231A
S2144036B043EA02432361AB7FE87F297F6A7F266027
S2144036C01B0443EA00630B43002043EA0223E36003
S2144036D0A060A061F388A3800DF50F7DBDE8F08F54
S2144036E0062041E73B4B984795F815C0AB7E297DB1
S2144036F0EA7E059EA8734FEA104841EA0C2143EA49
S2144037000222C0F30729002385F81080000E4FF0F0
S214403710010C52EA014885F80F906874EB722B77DB
S2144037206B77AB77EB77AB76EB762B756B7586F86E
S21440373004C03FF45FAFE045D6F82C9002D0B369A2
S214403740984527D302200DF50F7DBDE8F08F002861
S2144037507FF472AF4FF4807099E70123590001EB74
S214403760030C4FEA8C0C02EB0C0042F80C60DDF8C0
S2144037701CB0BDF81AA0C0F804B04FF0000CA0F87A
S21440378008A0A0F80AC0B8F1000FE3D140467CE795
S2144037900223E3E7304641460F4B984700287FF424
S2144037A0E6AE05980D4B08F1FF324946C260984791
S2144037B000287FF4DCAE059E1CE700BF8525400050
S2144037C02132400005234000D80E0020A92E40009C
S2144037D0E00E0020AD224000B53140007523400089
S2144037E02DE9F04F9B4606460023CBF8003083B0C9
S2144037F00D460068B188624B1446984728B9B3799D
S2144038001F0605D4D80707D4072003B0BDE8F08FBD
S214403810022003B0BDE8F08FB168F7687F1ABC425B
S21440382038BF2746002F00F0A880C1F30803DFF812
S2144038305881DFF85891002B3ED130688378013BA1
S21440384003EA512313F0FF034BD072698169A2F15A
S214403850020C02398C4571D28278816A02FB0C11C7
S21440386000296BD07C0A01EB030A43D01919914218
S21440387088BFC3EB0204E3B2407829465246C047AD
S214403880B379002861D15A0604D5B369CAEB03035D
S2144038909C425FD86202B168AB181144B160DBF855
S2144038A00010BF1A11441D46CBF8001065D0B16811
S2144038B0C1F30803002BC0D0C3F5007203F12804FF
S2144038C0BA4228BF3A4634442B46002AE5D0AB18C5
S2144038D0294614F8015B01F8015B9942F9D1B168B9
S2144038E0DBE729BB3269012A28D9511C2CD0306825
S2144038F07261ABE7B269524514D0B3795B0606F104
S214403900280409D5012340782146C847B379E0B951
S21440391023F040033068B371407821465246012375
S214403920C04788B9B168C6F818A0C1F30803C3E712
S2144039307169012902D98269914218D3B37963F03B
S2144039407F03B371022060E7B37963F07F03B371FE
S21440395001205AE705EB432303F5007006F12802E1
S21440396012F8011B03F8011B8342F9D192E7019339
S214403970044A9047019B0246B5E7002045E700BF52
S214403980D1244000B528400055214000C9214000C0
S21440399038B50446274B0068A1889847D0B9A27925
S2144039A002F0200303F0FF00A3B153060DD52146D5
S2144039B0A26951F8283B204D58780123A847002893
S2144039C036D1A37923F04003A3712068E1691B4BED
S2144039D0984700B138BD256A194AEB7A43F0200370
S2144039E0EB72E3682B77A3891B0A6B77E389AB7787
S2144039F0E37BEB772369AB76238A1B0AEB76638AF5
S214403A002B75638A1B0A6B759047C0F30721020C1F
S214403A10030EE9752A76A8756B76A0792368094A5D
S214403A2020F020000121A07119712068904738BD10
S214403A300120CFE7D1244000C92140007523400033
S214403A40AD224000F9234000F8B5104B0446984795
S214403A5098B9636A013B022B10D85D000C49EA18FE
S214403A6001EB82020832568826F4807747B1013E41
S214403A70B6B256802EB100232360F8BD0220F8BDB2
S214403A8050802B449B000022CA50F4E791394000F6
S214403A90D80E00207F2810B40ED981B90E4B01E015
S214403AA0802915D033F8022F82428CB201F10101F1
S214403AB0F6D104F1800080B25DF8044B7047FF28D1
S214403AC006D88038054B5DF8044B33F81000704735
S214403AD000205DF8044B7047A26A4000A46A40008C
S214403AE061280AD00749002201E0834206D031F817
S214403AF0023F0132002BF8D170470022024B33F8C8
S214403B0012007047C4684000A46B400043685A687F
S214403B104A6042688A605A689160596041600861AC
S214403B20036801330360704710B40C68631C16D0FA
S214403B30C3681A68944200F1080304D35B685A6865
S214403B4012689442FAD25A684A6091608B60596013
S214403B50086103685DF8044B0133036070470369EE
S214403B60F1E700BF436882689A60836842685A609B
S214403B7003695A68824204BF82685A600022026122
S214403B801A68013A1A607047064B19680868B0E828
S214403B90F00F80F309884FF0000080F311884EF054
S214403BA00D0E7047D40F0020024B4FF080521A6023
S214403BB0704700BF04ED00E04FF0000080F311882E
S214403BC0024B1A6801321A60704700BFB4000020EA
S214403BD0044A1368013B13601BB94FF0000080F3A2
S214403BE011887047B4000020EFF309800C4B1A6828
S214403BF020E9F00F10602DE908404FF0000080F3F8
S214403C00118800F035FB4FF0000080F31188BDE8C6
S214403C10084019680868B0E8F00F80F309887047D4
S214403C20D40F002008B5074B4FF080521A604FF073
S214403C30000080F31188044B98474FF0000080F353
S214403C40118808BD04ED00E05140400038B5036CD3
S214403C50044633B90568002D28D0A36B0133A3630F
S214403C6038BD82B91A468068134B9847A168236CC2
S214403C7062680B449342A360EFD32368A360A36BB0
S214403C800133A36338BD1A46C0680B4B9847226C75
S214403C90E3682168524213448B42E360DDD2636896
S214403CA01A44A36BE2600133A36338BD4068034BFC
S214403CB098476560D1E700BF1D6140001D45400044
S214403CC038B5046864B1C368026C45681344AB42B7
S214403CD0C36024BF2346C46008461946014B984734
S214403CE038BD00BF1D6140002DE9F0410446234F1A
S214403CF0B847A36C002B18DD636AB3B104F1240601
S214403D001F4DDFF8808006E0A36C013B002BA364C8
S214403D100BDD636A4BB13046A8470028F4D0C04755
S214403D20A36C013B002BA364F3DC4FF0FF33A3648A
S214403D30DFF85480C047B847636C002B17DD236913
S214403D40ABB104F110060E4D0E4F06E0636C013B1E
S214403D50002B63640BDD23694BB13046A84700282F
S214403D60F4D0B847636C013B002B6364F3DC4FF040
S214403D70FF336364C047BDE8F08100BFB93B4000F5
S214403D809143400095444000D13B40002DE9F04F20
S214403D90374F384DDFF8FCA0DFF8FC8087B004468C
S214403DA0039201910293B946002621E004AEB8473B
S214403DB0C047A847636C013304BF00236364A36C09
S214403DC0013304BF0023A364B847304603A92A4BF7
S214403DD0984700283AD1A847D4F838B0E66BC84789
S214403DE0B34512D0254B20469847254B9847012689
S214403DF0A847A26BE36B9A4216D3039800B3002EF3
S214403E00D4D104AE3046D047D1E704F11000039930
S214403E101C4B9847194B20469847194B9847002803
S214403E20E5D1194B9847E2E7184B0199029A20468C
S214403E309847636A9BB9B847012007B0BDE8F08F42
S214403E400090B847009807B0BDE8F08F20460B4B6F
S214403E5098470B4B9847002007B0BDE8F08F04F119
S214403E6024000B4B98470128E5D1074B9847E2E7DB
S214403E70D13B4000B93B400019444000E93C40007B
S214403E807D41400041434000A93B40004D3C40003E
S214403E909143400001444000414040002DE9F04F2E
S214403EA0464F474DDFF840A1DFF8409187B00446C3
S214403EB0039201910293B84600262AE004AEB84722
S214403EC0C847A847636C013304BF00236364A36CF0
S214403ED0013304BF0023A364B847304603A9394BD7
S214403EE0984700284DD1A847D4F838B0344EC0473C
S214403EF0BBF1000F19D1236803B304F124000399E2
S214403F00314B9847314B20469847314B984790B1B4
S214403F100126A847A36BBBB9039800282BD0002ED8
S214403F20CCD104AE3046D047C9E72046274B984709
S214403F30274B9847ECE7274B9847E9E7B047606838
S214403F40254B9847C047D8E7244B0199E56820465B
S214403F509847029BF3B9A26B2368013AA26343B326
S214403F602369D3B104F110001D4B9847012814D1A2
S214403F70184B984711E00090B847009807B0BDE846
S214403F80F08F2046114B9847114B9847002007B0BA
S214403F90BDE8F08F636AE56023B9B847012007B0F3
S214403FA0BDE8F08F04F124000D4B98470028F4D06C
S214403FB0DEE70C4B98476060D2E700BFD13B40003D
S214403FC0B93B40001944400041434000E93C4000B2
S214403FD07D414000A93B4000AD444000C13C40000C
S214403FE091434000A144400001444000414040000D
S214403FF010B50D4B0D4A1968126848609042044649
S2144040000BD30B490B4A08681968043190470A4B92
S2144040101A68944238BF1C6010BD0849054A0868B3
S21440402019680431904710BDD40F0020040F0020BB
S214404030B00F0020293B4000BC000020A80F002005
S214404040024B1A6801321A60704700BFEC0F00201E
S2144040502DE9F04F3E4B1B6883B0002B50D13D4CB2
S2144040602368013323602368002B50D03A4A0192DC
S2144040701368226837499A4246D3384D2B681B68E6
S214404080002B36D02B68DB68D3F80CB00968DBF819
S21440409004208A4257D8324F324EDFF8D890DFF8A5
S2144040A0D88009E02D4A1368DB68D3F80CB0216845
S2144040B0DBF804208A4246D80BF1040A5046B8473B
S2144040C0DBF828200BF118000AB1254A9047DBF8A8
S2144040D02C303268934203EB830088BF214A09EBB9
S2144040E08000514688BF1360C0472B681B68002B72
S2144040F0D8D1019A4FF0FF33136003B0BDE8F08F7C
S214404100194B1A6801321A6003B0BDE8F08F134BA2
S21440411016491868164A0D681D6008601168013116
S21440412011601A68126832B90B4B0B4A01934FF074
S214404130FF3313609DE71B68074ADB680192DB6824
S2144041405B68136095E7019B1A6003B0BDE8F08F8B
S214404150EC0F0020040F0020BC000020B00F002011
S214404160653B4000000F0020F00F0020A80F002005
S214404170F80F0020080F00200D3B40002DE9F047C7
S2144041802D4B98472D4B1A68013A1A601E68002E30
S2144041903CD12B4B1B68002B38D0DFF8CC90294FF6
S2144041A0DFF8C880CA461EE0DAF80C30DC6804F156
S2144041B01800251DB8472846B847E36AD8F800E0F7
S2144041C02149224A03EB8300734501EB80002946D0
S2144041D088BFC8F8003090471D4BE26A1B68DB6A10
S2144041E09A4228BF0126D9F80030002BDCD1194C62
S2144041F023688BB123683BB1174DA8472368013B22
S21440420023602368002BF8D1144B0BE00024144B9A
S21440421098472046BDE8F087012EF5D00F4B1A6828
S214404220012AF3D100210F4A1960012490470C4B14
S21440423098472046BDE8F087B93B4000EC0F002089
S214404240B40F0020653B4000080F00200D3B4000A7
S214404250D40F0020F00F002051404000CC0F00202B
S214404260D13B4000A93B4000B80F0020000F002083
S21440427030B4294B1B68002B34D1284B28491A6888
S21440428002EB820292008A584AB91A68013A1A60CA
S2144042901A6802EB820251F82220002AF5D01B68E9
S2144042A003EB830301EB830101F108024B685B6873
S2144042B04B6093422CD01B491B4A0868DB6813604E
S2144042C070B1136819485C6C03689C4208D0184B60
S2144042D0184D1C682D680834A54208D800230B608A
S2144042E030BC7047144B01221A6030BC70471349EB
S2144042F012681C680D681968526C026004311960B7
S21440430018681968256004310260196030BC70472F
S2144043105B684B60CFE700BFEC0F0020000F00202B
S214404320080F0020AC0F0020D40F0020B80000205B
S214404330D00F0020F40F0020CC0F0020040F0020E8
S21440434038B50C4C0C4B22680D4602F118019847C4
S21440435020680A4B043098476B1C05D0084A094B26
S21440436010682844984738BD21680748074B0431F1
S214404370984738BDD40F0020293B4000653B40009D
S214404380040F0020F13F4000D80F00200D3B4000B6
S21440439070B5C368134EDC6804F118052846B0476C
S2144043A0114B1B68CBB9251D2846B0470F4AE36A18
S2144043B011680F488B4288BF136003EB83030D4A96
S2144043C0294600EB830090470B4BE06A1B68DB6A8C
S2144043D0984234BF0020012070BD29460748054B4F
S2144043E09847F1E7653B4000EC0F0020000F0020A7
S2144043F0080F00200D3B4000D40F0020B80F0020CF
S214404400034A044B12681B6880E80C00704700BFE4
S214404410F80F0020040F002070B50D46194B0446D7
S21440442098472B685A1C28D01748226801688A4249
S2144044301BD0164962680E68B24211D90E681349FD
S214404440B61AB3420CD90E68006809689B1B1A441A
S2144044502A600F4B84E8030000259847284670BD25
S21440446001250B4B9847284670BD084962680E6880
S2144044700649B61AB342E6D8F2E70025044B9847F9
S214404480284670BDB93B4000F80F0020040F0020BE
S214404490D13B4000014B01221A607047CC0F0020F0
S2144044A0014B1868704700BFD40F0020F8B5164D72
S2144044B0C36A2A68D26A934204460FD22A68134EC9
S2144044C0D16A426903EB830306EB8303C1F108011B
S2144044D09A42816103D02B68DB6AC362F8BD071D30
S2144044E038460B4B98472B680A4ADB6A1168E362EA
S2144044F08B4203EB830088BF136006EB800039468F
S214404500054B9847F8BD00BFD40F0020080F002089
S214404510653B4000000F00200D3B400038B5044688
S214404520C8B1C26A836C9A4215D0051D28460A4B0C
S21440453098470A4AA36C1168E362C3F108008B42AD
S214404540A061074888BF136003EB8303054A2946EA
S21440455000EB8300904738BD653B4000000F0020CD
S214404560080F00200D3B400008B50348034B984712
S2144045700348044B984708BD50140E40695340000A
S214404580846D4000790B4000F0B40A2A84B028D0ED
S21440459000276E466B4638B9B34210D104463034D5
S2144045A01C7001330028F7D0B0FBF2F502FB15046F
S2144045B0092C2846F3DD57341C700133EBE7981B73
S2144045C01FB12D220A7001300131B34206D901399C
S2144045D013F8012D01F8012FB342F9D104B0F0BC15
S2144045E070470028D4DA40420127D2E7F8B50B4E90
S2144045F00B4BD6F800010B4D0F4698470A4B044626
S214404600014628469847BC42EB6C064804BF012347
S21440461086F80E312146054B9847F8BD1801002014
S2144046204551400000100E40814F4000794F4000F9
S214404630F8B50B4E0B4BD6F8F0000B4D0F4698478F
S2144046400A4B0446014628469847BC42EB6C06484F
S21440465004BF012386F8FE302146054B9847F8BD37
S2144046601801002045514000000E0E40814F40008A
S214404670794F4000F8B50B4E0B4B306E0B4D0F4646
S21440468098470B4B0446014628469847BC42EB6C7D
S214404690064804BF012386F86E302146054B9847EE
S2144046A0F8BD00BF1801002045514000000E0E40E6
S2144046B0814F4000794F4000F8B50B4E0B4B306DA4
S2144046C00B4D0F4698470B4B0446014628469847E5
S2144046D0BC42EB6C064804BF012386F85E30214698
S2144046E0054B9847F8BD00BF1801002045514000D3
S2144046F0000E0E40814F4000794F4000F8B50B4EFB
S2144047000B4B306C0B4D0F4698470B4B04460146FF
S21440471028469847BC42EB6C064804BF012386F8FF
S2144047204E302146054B9847F8BD00BF1801002083
S21440473045514000000E0E40814F4000794F4000EA
S214404740F8B50B4E0B4B306B0B4D0F4698470B4B4B
S2144047500446014628469847BC42EB6C064804BFD0
S214404760012386F83E302146054B9847F8BD00BFEA
S2144047701801002045514000000E0E40814F400079
S214404780794F4000F8B50B4E0B4B306A0B4D0F4639
S21440479098470B4B0446014628469847BC42EB6C6C
S2144047A0064804BF012386F82E302146054B98471D
S2144047B0F8BD00BF1801002045514000000E0E40D5
S2144047C0814F4000794F4000F8B50A4E0A4B306999
S2144047D00A4D0F4698470A4B0446014628469847D6
S2144047E0BC42EB6C054804BF0123B3772146054B1A
S2144047F09847F8BD1801002045514000000E0E4075
S214404800814F4000794F4000F8B50A4E0A4B306859
S2144048100A4D0F4698470A4B044601462846984795
S214404820BC42EB6C054804BF0123B3732146054BDD
S2144048309847F8BD1801002045514000000E0E4034
S214404840814F4000794F40002DE9F0410379012B1C
S21440485082B0044611D04279364B0068012A14BF14
S2144048604FF040554FF06055984729462068324BE8
S2144048709847002002B0BDE8F081027B2F4F437B73
S214404880012A18BF4FF02057012B3CD02C4D2D4EFF
S214404890284B20689847284B206839469847A37984
S2144048A0032B29D8284A206852F82370A847054683
S2144048B02068B04717F0700F064614D02068234B88
S2144048C09847A368009301463B4632462846204C0C
S2144048D0A047204B2846314698471F4B9D4224D040
S2144048E01E4B9D421CD0D5F8903000201E43C5F884
S2144048F0906002B0BDE8F0812068A8470546206871
S214404900B0470646EFE70E4D00680E4EA847804675
S2144049102068B04705220146114B40469847B7E706
S214404920104B4FF480521A60DDE70E4B4FF4006296
S2144049301A60D8E71D534000E94F400001000028A8
S2144049402D514000455140009C6D40003D51400077
S214404950C9514000794F4000000E0E4000100E40F6
S214404960754E400000E100E0F8B50B4B0B4CD3F819
S21440497014210B4F42F44062C3F8142104F5987694
S21440498000252046B8471034002818BF0125B442F9
S214404990F7D12846F8BD00BF00020E40180100209F
S2144049A04948400038B5184C050163191A7972B960
S2144049B0DB7B023B012B0CD901291FD012D30229E5
S2144049C015D120681149124B9847002038BD012068
S2144049D038BD01290DD00029EED120680C4B4FF090
S2144049E04051984760590B4B9847002038BD0020EF
S2144049F038BD2068064B4FF0605198476059064BCB
S214404A009847002038BD00BF18010020010000284C
S214404A10E94F4000A94F40008D4F40000A4B00012F
S214404A201858430903F5001303F207735B0200F0BE
S214404A301F00DA6B012303FA00F0024008BF13465A
S214404A400B700020704700BF1801002008B5034ACD
S214404A50034B000110589847002008BD180100205D
S214404A60C54F400010B5B1F8043282B00022B3F50D
S214404A70007F0C46019228D00CD3B4F80232B3F52E
S214404A80007F04BF0023A4F80232012384F80732D3
S214404A9002B010BD01A9144B984740B1B4F8043297
S214404AA0B3F5007F04BF012384F80832E5E7B4F885
S214404AB00222019BA354B4F80432013301329BB264
S214404AC0A4F80222A4F80432EAE7D1F80C32064AE7
S214404AD001330121C4F80C3284F8091201A9904729
S214404AE0B4F80432DCE700BFE520400070B5B1F80A
S214404AF01434B3F5007F0C4602460FD08BB981F8CC
S214404B0016344FF40071234B9847B4F81024B2F58E
S214404B10007F04BF0023A4F8103470BD002184F841
S214404B201714B4F810141C486518824295F81052B1
S214404B3010D01A4882421FD01948824223D01948C2
S214404B40824212D04A1C92B2013BA4F81024A4F828
S214404B501434DCE7144E10482946B0470028FAD1F2
S214404B60B4F81014B4F81434ECE7104E0D48294647
S214404B70B0470028FAD1F3E70B4E08482946B0471D
S214404B800028FAD1ECE7094E05482946B0470028E8
S214404B90FAD1E5E7B120400000060E4000080E407E
S214404BA00040024000800240B9204000D120400032
S214404BB038B504461F4B00680D464FF400719847C1
S214404BC062691D4802EB421200EB4213B3F814240C
S214404BD0B2F5007F21D00ED2B3F812140132581825
S214404BE092B20131B2F5007F80F81052A3F8142437
S214404BF0A3F8121419D0B3F81224B2F5007F04BFFC
S214404C000022A3F81224012283F8162420680B4BB6
S214404C104FF400719847002038BDD3F81C2401217A
S214404C200A44C3F81C2483F81814012283F8172476
S214404C30E1E700BFCD20400030130020C9204000EF
S214404C402DE9F041094F0646884615460024AC42F9
S214404C50304608D218F80410B8470028F7D1013477
S214404C60AC423046F6D3BDE8F08100BFB14B4000C1
S214404C7010B50C480C4B9847C207044603D50B4961
S214404C8091F8063253B9A30503D5084991F8063280
S214404C9003B910BD0348064B984710BD0148054B65
S214404CA09847F0E700060E40B5204000301300203D
S214404CB0ED4A4000654A400010B50E480E4B9847F6
S214404CC0C207044603D50D4991F8263663B9A305B5
S214404CD003D50A4991F8263603B910BD01F584611B
S214404CE00448074B984710BD01F584610148054BC1
S214404CF09847ECE700080E40B520400030130020EF
S214404D00ED4A4000654A400010B50E480E4B9847A5
S214404D10C207044603D50D4991F8463A63B9A30540
S214404D2003D50A4991F8463A03B910BD01F5046126
S214404D300448074B984710BD01F504610148054BF0
S214404D409847ECE700400240B52040003013002072
S214404D50ED4A4000654A400010B50E480E4B984755
S214404D60C207044603D50D4991F8663E63B9A305CC
S214404D7003D50A4991F8663E03B910BD01F5466170
S214404D800448074B984710BD01F546610148054B5E
S214404D909847ECE700800240B520400030130020E2
S214404DA0ED4A4000654A400038B50E480E4D0F4C5F
S214404DB0A84700203E210E4B9847A0470028FCD02D
S214404DC00C4B0D4C98470D4B0D4A9A62A047002855
S214404DD0FCD00C4B102098470B4B98470148A847EF
S214404DE038BD00BF000E2707F1544000ED5240008A
S214404DF099524000FD5240000D53400000040E40C2
S214404E00013F0E20415240000954400038B50B2067
S214404E10134D144CA8470C20A8474FF0C0511C20F7
S214404E20A0474FF0C0511D20A0474FF0C0511E2054
S214404E30A0474FF0C0511F20A0474FF0C0511A2046
S214404E40A0474FF0C0511B20A04707492B20A04742
S214404E50064B07480C214FF00062984738BD00BF0C
S214404E601D534000E94F400001000028A15040007B
S214404E7000100E4052004FF40043B3FBF2F2013AEA
S214404E80C2F30D02C0F88410C0F88C20704700BFF3
S214404E90B1F1C05F10B4426430D012D8B1F1006FA7
S214404EA020D0B1F1805F1AD1036F13430367436F7D
S214404EB0416F0B4023EA0203436742605DF8044BB0
S214404EC07047B1F1205FF9D022D8B1F1005FF4D13C
S214404ED0036F13430367436F13434367EDE70029AC
S214404EE0EBD1EBE7016F046FD343214019400167D4
S214404EF0416F446F21400B404367DEE7036F016F0D
S214404F000B4023EA02030367436F13434367D4E728
S214404F10B1F1405FD2D0B1F1605FCFD0CDE700BFF6
S214404F20D30741644CBF4166016612F00A0F14BFB6
S214404F3001624162930706D4130748BFC0F8841045
S214404F40416101607047C0F8801041610160704760
S214404F50D3060ED59306C0F8B0104CBFC0F8D41098
S214404F60C0F8D01053064CBFC0F8C010C0F8C410EC
S214404F707047C0F8B4107047C36C0164704700BFF8
S214404F8041647047C06C7047806C7047430903F5B6
S214404F90001303F207735B0200F01F00012202FABF
S214404FA000F01863704700BF430903F5001303F28F
S214404FB007735B0200F01F00012202FA00F05863FC
S214404FC0704700BF430903F5001303F207735B0203
S214404FD000F01F009A6B012101FA00F0104214BF46
S214404FE058631863704700BFF8B544090D4604F58A
S214404FF0001401F0F04104F20774B1F1005F4FEA8B
S21440500044240BD019D8B1F1805F07D0B1F1C05F0E
S21440501004D0B1F1006F01D00020F8BD012600F0A9
S2144050201F0006FA00F73A4620461B4B9847ED0706
S2144050304CBF676627663046F8BDB1F1405F10D07A
S214405040B1F1605F0DD0B1F1205FE5D1012600F0EF
S2144050501F012A46204606FA01F1104B9847304673
S214405060F8BD00F01F000123834005F00401E80767
S214405070636405F060524CBF6366236649B123659E
S214405080B2F1605F0CBF236363632361236001203A
S214405090F8BD6365F4E700BF914E4000214F4000E5
S2144050A002F0F043B3F1005F70B5144606460D4675
S2144050B00BD014D8B3F1805F07D0B3F1C05F04D0F3
S2144050C0B3F1006F01D0002070BD19462A46154B3B
S2144050D09847E0074CBF75663566012070BDB3F152
S2144050E0405F09D0B3F1605F06D0B3F1205FEAD1EC
S2144050F00D4B9847012070BDE10704F0040275642B
S21440510004F060534CBF756635664AB13565B3F1F9
S214405110605F0CBF3563756335613560012070BDD7
S2144051207565F4E7914E4000214F4000400900F578
S214405130001000F207704002704700BF40090B3075
S214405140704700BF012300F01F0003FA00F07047CD
S2144051502DE9F041174B80460E469847164B0546BC
S21440516040469847054018D0144C04F1B00703E079
S214405170BC4212D0103485B154F80C3CB342F7D13F
S21440518054F8081C2942F3D023683046984754F810
S214405190083CBC4225EA0305ECD1094B1B6833B1F9
S2144051A0084B1B680BB140469847BDE8F081BDE808
S2144051B0F08100BF854F4000894F4000101000200E
S2144051C0B0230020001000202DE9F8430F4D2C6836
S2144051D00B2C8C46164602D90120BDE8F883DFF832
S2144051E03080DFF830904FEA041E08EB0E0748F890
S2144051F00EC01146BB601A46089B7E600134FB60B9
S2144052002C60C8470020BDE8F88300BFFC0F002094
S21440521004100020514F400008B50248024B0B21B5
S214405220984708BD000E0E405151400008B5024850
S214405230024B0C21984708BD00100E4051514000CB
S21440524014490B6B23F07003184308638B6E1B07DF
S21440525007D44FF4006301E0013B16D08A6E100776
S214405260FAD50C490B6B23F0030343F002030B63A0
S214405270886E10F008000AD14FF4006301E0013B4D
S21440528003D08A6E1207FAD5704701207047002077
S214405290704700BF00040E40C8B9114B1A6A22F48A
S2144052A05C1222F00302090242F45C1289B242F018
S2144052B001020A431A6219468B6E094ADB07FBD580
S2144052C0136A43F09B7343F4803313627047044978
S2144052D0044A086A044B024013430B62704700BFFF
S2144052E000040E40FCFFC8FE02003701024B986ED9
S2144052F000F48030704700BF00040E40024B4FF071
S21440530000529A62704700BF00040E40024B986EEF
S21440531000F00200704700BF00040E40222819D853
S2144053201F280E4B09D801219A6901FA00F0024065
S214405330904211D018610020704720380121D3F8E0
S214405340082101FA00F00240904205D0C3F800015F
S21440535000207047012070470020704700040E4030
S2144053604FF400434360704780687047FEE700BFD5
S2144053701C481D4B984210B525D91C4A93420AD268
S214405380D9430A4422F00304043400228158995039
S2144053900432A242FAD100BF154B164A93420AD2B3
S2144053A0D9430A4422F0030119440022043B43F83F
S2144053B0042F8B42FBD1104B104A9A60104B9847F3
S2144053C0104B9847FEE7E6D208490438CA1A1044FC
S2144053D0002AE0D00A46541A245842F8044D934214
S2144053E0F9D1D8E7E06D4000000000208C0A00208C
S2144053F08C0A0020B823002000ED00E000004000AA
S214405400855B4000A5554000324B1A6B02F0030204
S214405410012A3AD023D31A6AD20147D52E4A2F48BA
S21440542010602C4B196B01F0030102290BBF996ADF
S214405430D96A9B6ADB6AC1F30A4101FB0000DBB212
S214405440B0FBF3F0234B1060196B01F0700170292C
S21440545015D1234BA3FB0010400810607047214B2A
S2144054601D4A5B691B064CBF4FF400404FF4FA40A0
S2144054701060184B196B01F070017029E9D01B6B56
S214405480C3F30213D840106070471A6A12F0807F48
S214405490114A08D1144810601B6A03F07003102BA1
S2144054A014D0202BE5D10D481060E2E70A4A0E489A
S2144054B010601B6A03F07003102B04D0202BB0D171
S2144054C006481060ADE709481060AAE70748106034
S2144054D0CFE700BF00040E404C020020001BB70080
S2144054E0ABAAAAAA10140E4000093D0000127A008A
S2144054F00F4B984212D90F4B98420BD90E4B9842FD
S21440550011D90E4B98420E4B8CBF0E4A4FF00422D8
S2144055101A6070470A4B0C4A1A607047084B4FF0A7
S21440552080621A607047064B084A1A60704700BF90
S2144055303F81BA017F027503FFC53E05FF0D270771
S214405540000A0E40000500040001000400020004AA
S214405550074A084913683BB118448142A6BF106009
S21440556018464FF0FF307047034B1360F4E700BF18
S214405570C4100020FCFF0020B8530020FEE700BF08
S214405580FEE700BFFEE700BFFEE700BF08B5034BDF
S214405590034A196801311960904708BDC8100020B9
S2144055A0253C400008B5074B01221A70BFF35F8FB9
S2144055B062B6054B054C9847054B98470548A047AB
S2144055C0FCE700BF48020020A94D400085000020AF
S2144055D06109400025CA82004BB942B9002908BF7C
S2144055E0002802D04FF0FF31084600F03BB882B0AA
S2144055F0EC462DE9005000F01DF8DDF804E002B05E
S2144056000CBC70472DE97043069E14461D468046E6
S214405610894600F029F804FB01F300FB0533A4FBA0
S21440562000451D44B8EB040469EB0505C6E9004592
S214405630BDE870832DE97043069E14468046894631
S2144056401D4600F05DF900FB05F504FB0153A0FB89
S21440565004451D44B8EB040469EB0505C6E900455E
S214405660BDE87083704700BF00292DE9F00FC0F2F7
S2144056709F800024002BC0F29680154606460F46B3
S214405680002B3ED18A4257D9B2FA82F34BB1C3F1CE
S214405690200201FA03F720FA02F29D40174300FA6F
S2144056A003F6290CB7FBF1F2330C01FB127CA8B2CF
S2144056B043EA0C4700FB02F3BB4209D97F1902F1CB
S2144056C0FF3C80F00181BB4240F2FE80023A2F440C
S2144056D0FF1AB7FBF1F3B6B201FB137146EA01417C
S2144056E000FB03F0884208D9491903F1FF3780F0E0
S2144056F0ED80884240F2EA80023B43EA02420023C1
S21440570003E08B420AD900231A461046194614B1C4
S214405710404261EB4101BDE8F00F7047B3FA83F8B1
S214405720B8F1000F40F084808B4202D3824200F2F0
S214405730DE8000230122E8E712B90123B3FBF2F52D
S214405740B5FA85F2002A39D17F1B280C1FFA85FC52
S2144057500123B7FBF0F1320C00FB117742EA074712
S2144057600CFB01F2BA4207D97F1901F1FF3802D289
S214405770BA4200F2C1804146BF1AB7FBF0F2B6B259
S21440578000FB127046EA00400CFB02FC844507D939
S214405790401902F1FF3702D2844500F2AB803A4608
S2144057A042EA0142B1E7E443524263EB430364E713
S2144057B0404261EB41014FF0FF345BE79540C2F158
S2144057C0200327FA03F1280C26FA03F39740B1FB8F
S2144057D0F0F81F433B0C00FB18111FFA85FC43EA08
S2144057E001410CFB08F38B4206FA02F608D9491928
S2144057F008F1FF3279D28B4277D9A8F102082944C2
S214405800C91AB1FBF0F3BFB200FB131147EA0147D8
S2144058100CFB03F2BA4207D97F1903F1FF3160D27D
S214405820BA425ED9023B2F44BF1A43EA084390E788
S214405830C8F1200203FA08FC25FA02F343EA0C0CEE
S2144058404FEA1C4921FA02F301FA08F720FA02F25D
S214405850B3FBF9F1174309FB11333A0C1FFA8CFBE3
S21440586042EA03430BFB01FA9A4505FA08F008D9C9
S21440587013EB0C0301F1FF3235D29A4533D9023986
S2144058806344CAEB0303B3FBF9F209FB1233BFB21E
S21440589047EA03470BFB02F9B94508D917EB0C0753
S2144058A002F1FF331BD2B94519D9023A674442EA9E
S2144058B00145A5FB0001C9EB07078F424FF00003E7
S2144058C00AD305D02A4620E7624601E73B4614E75E
